:100000000C94FC020C9419030C9419030C9419031E
:100010000C9419030C9419030C9419030C941903F0
:100020000C9419030C9419030C9419030C941903E0
:100030000C9419030C9419030C9419030C941903D0
:100040000C9419030C9419030C9419030C941903C0
:100050000C9419030C9419030C9419030C941903B0
:100060000C9419030C9419030C9419030C941903A0
:100070000C9419030C9419030C9419035706570692
:10008000570687066106A006C206DF06C206DF061F
:100090005306530657066C07DF06000887069406CA
:1000A000FC0641074B076C076C07BC077907D007B4
:1000B000EA075C0C6E0CA30C7B1BF60C2424242496
:1000C0002424FF0B5F0D770D8C0D24242424BF0DF9
:1000D00024242424EB0D1B0E760E320FA80F1C10C7
:1000E0007C10DA10320F2424320F2424591190117D
:1000F000DF1132122424242424242424242424241C
:10010000A412CD12151358132424242424242424A7
:1001100024242424B213D7131A145B1424241C108F
:100120007C10760E320FA80FB9140E155415B215A7
:100130001A167A16DA161B0E510E24243A173A179D
:100140005717242424245415B2151A167A16DA16D1
:100150005C172424AB17BF17141824242424341844
:1001600024245E18B418FD183419A4192424F21993
:10017000701ADF1A2A1B631B0A1C3F1CB61CFE1CCC
:100180003A1D631DD31DE71E601F2424A51FC61F33
:10019000EF1F252057202424352124242424252022
:1001A0008721242424242424E8211A2224244E22D2
:1001B000242424246C22EE220C237F230A720200C2
:1001C000030004130308005F5F6E616D655F5F03EA
:1001D00003006162730303006368720304006576C1
:1001E000616C030700676C6F62616C7303020069E6
:1001F000640303006C656E0306006C6F63616C73CF
:100200000303006D61700303006F726403030070E9
:100210006F7703050072616E676503030073756D88
:100220000304006C6973740304007479706503023D
:1002300000436F0308007365745F74797065030988
:1002400000457863657074696F6E0304005F5F62D8
:1002500069041503060050796D6974650B0100008F
:100260000B0101000B0302000B0003000B01040053
:100270000B0105000B0006000A59000204050401E9
:100280000303006D61700403000100000000010120
:100290000000006700007D02006401007D0300781B
:1002A0002B007C0100445D23007D04007C00007C69
:1002B00004008301006701007C02007C0300297CAC
:1002C0000300640200377D0300711300577C0200B5
:1002D000530B0107000B0208000B0309000B010A76
:1002E000000B010B000B010C000B010D000B020EAB
:1002F00000030900457863657074696F6E0A8100B8
:1003000000010004040308005F5F6E616D655F5FBC
:10031000030A005F5F6D6F64756C655F5F030800C3
:100320005F5F696E69745F5F03090045786365709C
:1003300074696F6E04010A370001030104020308A7
:10034000007365745F747970650308005F5F696EA0
:1003500069745F5F040200010E0000007400007CFD
:100360000000640100830200016400005365000086
:100370005A01006400008400005A02005253000435
:10038000006400005A00006401008400005A01006B
:100390006402008400005A02006403008400005AD2
:1003A00003006404008400005A0400640500840013
:1003B000005A05006406008400005A060064070025
:1003C0008400005A07006408008400005A08006492
:1003D00009008400005A0900640A008400005A0AD7
:1003E00000640B008400005A0B00640C00840000C1
:1003F0005A0C00640D008400005A0D00640E008445
:1004000000005A0E00640F008400005A0F006410B0
:10041000008400005A10006411006414006412008B
:10042000840000830000595A1100641300530A1F0E
:1004300001000100040A0306006D6178696E74030F
:10044000040065786974030400676574620304003E
:100450006865617003040070757462030400707550
:10046000747303040074696D65030E007072696E25
:10047000745F766D5F7374617465031000726567F5
:10048000697374657243616C6C6261636B03030032
:10049000737973040A01FFFFFF7F0B010F000B004C
:1004A00010000B0011000B0112000A4400010402AD
:1004B0000403030400707574620303006F72640325
:1004C000040070757473040100781E007C00004401
:1004D0005D16007D01007400007401007C01008342
:1004E00001008301000171070057640000530B00F5
:1004F00013000B0014000B021500006400005A00EA
:10050000006401008400005A0100640200840000BD
:100510005A02006403008400005A0300640400844B
:1005200000005A04006405008400005A05006406B7
:10053000008400005A06006407008400005A070087
:100540006408008400005A0800640900530A6B0024
:100550000001000405030500737061776E03040059
:10056000776169740304006C6F636B030600756E3A
:100570006C6F636B03060074687265616404050B3D
:100580000116000B0017000B0018000B00190000EB
:100590006400008400005A00006401008400005AD6
:1005A00001006402008400005A0200640300840019
:1005B000005A0300640400530A3B000001000403D6
:1005C0000307005F5F646F635F5F030500706F7216
:1005D00074410303006176720403000B011A0000EA
:1005E0006400005A00006401008400005A010064A5
:1005F00002005300256C690011241FBECFEFD0E12B
:10060000DEBFCDBF12E0A0E0B1E0E2EBFEE802C049
:1006100005900D92A435B107D9F71FE0A4E5B2E02B
:1006200001C01D92A23AB107E1F70E9427030C9482
:1006300058470C9400008AE08093920F8CE190E080
:100640009093940F8093930F8CEE90E00895CFEFEA
:10065000D0E1DEBFCDBF62E071E081E090E00E94BA
:10066000182C009721F484ED91E00E94D02B0C947B
:100670005847CF93DF93CDB7DEB728970FB6F894DE
:10068000DEBF0FBECDBF1A82198289ED91E09C8337
:100690008B831E821D829E012B5F3F4F40E068EEE0
:1006A00071E080E090E00E940F310097C9F5BE0133
:1006B000695F7F4F8D819E810E94FA28009781F5A6
:1006C0008F8198850E940D0B81E00E94C00B0097DE
:1006D00039F5EF81F885848195819093730F80932C
:1006E000720F9E012F5F3F4F40E0BE016D5F7F4F55
:1006F00080E090E00E940F31009791F44091680FE4
:100700005091690F69817A818091720F9091730F76
:100710000E94EC3D009721F48F8198850E94F3059B
:1007200028960FB6F894DEBF0FBECDBFDF91CF91F4
:1007300008950F931F93CF93DF93CDB7DEB7229722
:100740000FB6F894DEBF0FBECDBF8C011A8219829E
:100750008091720F9091730F892B11F40E943903CD
:100760009E012F5F3F4F40E068EE71E080E090E037
:100770000E940F31009759F44091720F5091730FFE
:1007800069817A81F801848195810E94EC3D2296ED
:100790000FB6F894DEBF0FBECDBFDF91CF911F9192
:1007A0000F9108950F931F93CF93DF93CDB7DEB7CB
:1007B00026970FB6F894DEBF0FBECDBF8EED91E049
:1007C0009A83898344E350E060E088E69FE00E94DA
:1007D000D92F85E08093910F8E010D5F1F4FB801D7
:1007E00086E090E00E942F099C01892B09F0B6C099
:1007F000EB81FC81FE83ED8380819181917C92600D
:10080000918380831282138214821582F0936B0F7E
:10081000E0936A0FB80186E090E00E942F099C01E6
:10082000892B09F09BC0EB81FC81FE83ED838081E5
:100830009181917C92609183808381E090E0A0E03F
:10084000B0E082839383A483B583F0936D0FE0932C
:100850006C0FB80186E090E00E942F099C01892B63
:1008600009F07CC0EB81FC81FE83ED838081918166
:10087000917C9260918380838FEF9FEFAFEFBFEF0A
:1008800082839383A483B583F0936F0FE0936E0FFD
:10089000B80182E090E00E942F099C01892B09F0A9
:1008A0005DC0EB81FC81FE83ED8380819181917C31
:1008B00091838083F093690FE093680F9E012B5F13
:1008C0003F4F40E0BE016F5F7F4F80E090E00E94AD
:1008D0000F318D819E819093710F8093700F1092D4
:1008E000730F1092720F1092750F1092740F809107
:1008F000760F9091770F97FF03C08070907C02C0B5
:1009000080709E7F86609093770F8093760F8091A2
:10091000760F9091770F917C90639093770F8093EF
:10092000760F10927F0F8E010B5F1F4FC8010E9440
:10093000C9259C01892B91F48D819E819093960FFE
:100940008093950FC8010E94FA3E9C01892B31F4D7
:100950008D819E8190939B0F80939A0FC90126965B
:100960000FB6F894DEBF0FBECDBFDF91CF911F91C0
:100970000F9108950895CF93DF93FC01A481B58171
:10098000109729F082819381ED019B838A83A28154
:10099000B38184819581109729F49093550F8093AA
:1009A000540F03C0FD019583848380E090E0DF91C4
:1009B000CF910895CF93DF93DC01E091540FF09134
:1009C000550F309751F49093550F8093540FEC01CD
:1009D0001D821C821B821A824DC08D919C911197A1
:1009E00097FF02C0AC0102C0AC015170440F551F0B
:1009F000440F551F2081318137FF02C0C90102C059
:100A0000C9019170880F991F880F991F8417950746
:100A100030F484819581009711F0FC01EBCF37FF12
:100A200002C0C90102C0C9019170880F991F880FC7
:100A3000991F8417950750F484819581ED019D835A
:100A40008C83B583A483FB83EA8314C0ED01FD830B
:100A5000EC83828193819B838A83C281D381209797
:100A600029F4B093550FA093540F02C0BD83AC83FB
:100A7000B383A28380E090E0DF91CF910895CF927D
:100A8000DF92EF92FF920F931F93CF93DF938C012E
:100A90006B01C091540FD091550F03C00C80DD81C4
:100AA000C02D209769F08881998199230CF091706D
:100AB000880F991F880F991F8017910778F307C037
:100AC000F6011182108259EEE52EF12C82C0CE0182
:100AD0000E94BB047C01892B09F07BC028813981ED
:100AE00037FF02C0C90102C0C9019170880F991F68
:100AF000880F991F801B910B069708F43DC0FE01DB
:100B0000E00FF11F2081318130682070307C31830B
:100B100020838881998199230CF09170880F991F07
:100B2000880F991F801B910B9695879596958795B1
:100B3000822B932B91838083CF010E94DA0400974C
:100B400011F07C0146C08881998197FF03C08070B5
:100B5000907C02C080709E7F998388838881998170
:100B60001695079516950795117080709E77802BC6
:100B7000912B9983888303C03174398328838091B2
:100B80007E0F2091580F882329F088819981222394
:100B900029F006C088819981222311F0906401C058
:100BA0009F7B998388832091560F3091570F8881BE
:100BB000998199230CF09170880F991F880F991FC4
:100BC000281B390B3093570F2093560FF601D18312
:100BD000C083C701DF91CF911F910F91FF90EF90DC
:100BE000DF90CF900895CF93DF93EC0188819981B6
:100BF0009068917C99838883CE010E94DA04AC01CD
:100C0000892B99F42091560F3091570F8881998143
:100C100099230CF09170880F991F880F991F820FEC
:100C2000931F9093570F8093560FCA01DF91CF9176
:100C30000895FC018091560F9091570F9183808306
:100C400080E090E00895CF92DF92EF92FF920F93B1
:100C50001F93CF93DF93EC01209709F4D1C1488112
:100C600059816091580FCA0184E0989F812D99277E
:100C7000112481709070262F33278217930709F46F
:100C8000BFC1FA01E070FE73EF2FFF27E695EB314D
:100C9000F10508F0B5C1E25CFF4FEE0FFF1F0590B4
:100CA000F491E02D09949CEEE92EF12CABC1662362
:100CB00019F0CA01906402C0CA019F7B998388839E
:100CC0009FC1CA80DB80662319F0CA01906402C00C
:100CD000CA019F7B998388838601000F111F0E5FD5
:100CE0001F4F0C0F1D1FEE24FF240BC0F801808145
:100CF00091810E9423067C0102501040892B09F04B
:100D000081C10894C108D108D7FEF0CF7BC166230A
:100D100019F0CA01906402C0CA019F7B998388833D
:100D20000C80DD81C02D98CF662319F0CA01906434
:100D300002C0CA019F7B998388838C819D8152C0A8
:100D4000662319F0CA01906402C0CA019F7B99838F
:100D500088838D819E810E9423067C01892B09F066
:100D600051C18F8198850E9423067C01892B09F04F
:100D700049C18A81882309F045C10B80DC81C02DDF
:100D800022976ACF662319F0CA01906402C0CA0193
:100D90009F7B998388838A819B810E9423067C01A3
:100DA000892B09F02FC18C819D810E9423067C0133
:100DB000892B09F027C10884D985C02D4DCF662322
:100DC00019F0CA01906402C0CA019F7B998388838D
:100DD0008C819D810E9423067C01892B09F012C120
:100DE0008A819B810E9423067C01892B09F00AC11C
:100DF0000E80DF81C02D30CF662319F0CA019064C8
:100E000002C0CA019F7B998388838A819B810E944B
:100E100023067C01892B09F0F5C08C819D810E94FD
:100E200023067C01892B09F0EDC08B859C850E94EF
:100E300023067C01892B09F0E5C08D859E850E94E3
:100E400023067C01892B09F0DDC08F8598890E94DB
:100E500023067C01892B09F0D5C08E010C5E1F4F43
:100E60000AC0F801808191810E942306009709F051
:100E7000C5C00E5F1F4F89899A890817190788F323
:100E8000C1C0662319F0CA01906402C0CA019F7BE9
:100E90009983888381C0662319F0CA01906402C0D7
:100EA000CA019F7B998388838E01B0E1CB2ED12C20
:100EB000CC0EDD1EF801828193810E9423067C0105
:100EC000892B09F09FC00E5F1F4F0C151D0591F770
:100ED0000A88DB89C02DC0CE662319F0CA01906450
:100EE00002C0CA019F7B998388830A80DB81C02D61
:100EF000B3CE662319F0CA01906402C0CA019F7B79
:100F00009983888380917E0F882309F479C080912A
:100F1000780F9091790F0E9423067C01892B09F0AC
:100F200071C080917A0F90917B0F0E9423067C0103
:100F3000892B09F067C080917C0F90917D0F0E94F2
:100F400023067C01892B09F05DC0C0E0D0E00DC014
:100F5000FE01EE0FFF1FE859F04F818D928D0E9428
:100F60002306009709F04AC021968091800F9927A7
:100F7000C817D9076CF346C0662319F0CA019064FC
:100F800002C0CA019F7B998388838A819B810E94CA
:100F900023067C01892BB1F50F80D885C02D5CCE4E
:100FA000662319F0CA01906402C0CA019F7B99832D
:100FB00088838A819B810E9423067C01892B11F5FD
:100FC0008C819D810E9423067C01892BD9F48E811E
:100FD0009F8112C0662319F0CA01906402C0CA0141
:100FE0009F7B998388838C819D810E9423067C014D
:100FF000892B41F48A819B810E9423067C0102C0D7
:10100000EE24FF24C701DF91CF911F910F91FF9034
:10101000EF90DF90CF9008958F929F92AF92BF9202
:10102000CF92DF92EF92FF920F931F93CF93DF93B4
:1010300080917E0F882361F080917F0F8F5F809376
:101040007F0F80917F0F823018F0EE24FF24F9C0CB
:101050008091580F91E089278093580F8091680FF5
:101060009091690F0E9423067C01892B09F0E9C049
:1010700080916A0F90916B0F0E9423067C01892B4F
:1010800009F0DFC080916C0F90916D0F0E942306D4
:101090007C01892B09F0D5C080916E0F90916F0F64
:1010A0000E9423067C01892B09F0CBC08091700F30
:1010B0009091710F0E9423067C01892B09F0C1C019
:1010C0008091740F9091750F0E9423067C01892BEB
:1010D00009F0B7C08091720F9091730F0E942306A0
:1010E0007C01892B09F0ADC086E79FE00E942306B2
:1010F0007C01892B09F0A5C08091950F9091960FE6
:101100000E94230680919A0F90919B0F0E942306C4
:101110007C01892B09F095C004E5C02E02E0D02E99
:1011200085C03170220F331F220F331FC20ED31E12
:10113000F6012081318137FD10C0C90184E0989FFC
:10114000812D99271124817090708417950729F4B7
:10115000F4E5CF16FFE0DF0620F384E5C8168FE044
:10116000D80608F06EC0E601AA24BB24882499247E
:101170002DC08A01000F111F000F111FCE010E9408
:10118000BB04009791F05CC08A011170000F111F21
:10119000000F111FCA01917C906899838883880F82
:1011A000991F880F991F880E991E8881998199230C
:1011B0000CF09170880F991F880F991FA00EB11E17
:1011C000C80FD91FEFE0C435DE0790F4488159817C
:1011D00057FDCFCF9A0124E0329F212D33271124D0
:1011E000217030708091580F99272817390761F6C0
:1011F0008091560F9091570F880E991E9092570F1D
:101200008092560FF601808191819068B694A794E0
:10121000B694A7948070907CA82AB92AB182A08243
:10122000C6010E94DA04009759F46E01F4E5CF1666
:10123000FFE0DF0630F48091580F482F552778CF14
:101240007C01C701DF91CF911F910F91FF90EF902B
:10125000DF90CF90BF90AF909F908F9008950F93A5
:101260001F93CF93DF938B0127E08D3F920718F0F8
:1012700029EE30E01EC08630910510F486E090E043
:10128000EC012396CC7FB801CE010E943F059C0162
:10129000893E910571F48091590F813051F40E947B
:1012A0000C089C01892B29F4B801CE010E943F054E
:1012B0009C01C901DF91CF911F910F9108958093F7
:1012C000590F80E090E0089580915402909155026A
:1012D0008070907480649368909355028093540258
:1012E0001092590210925802109257021092560210
:1012F00084E592E09093550F8093540F80E09DE039
:101300009093570F8093560F1092580F81E080935F
:10131000590F0E94833080E090E00895DF92EF92B1
:10132000FF920F931F93CF93DF93CDB7DEB7229732
:101330000FB6F894DEBF0FBECDBF182FD62E282FC4
:10134000332727FD3095C9018070892B09F054C1DE
:101350001A821982E091970FF091980FC901880FB6
:10136000991F0280F381E02D0188F289E02D3297E8
:10137000E81BF90BA081B1812D913C911197207050
:101380003E73232F332726952730310521F5E09131
:10139000970FF091980FA281B381FD018189928905
:1013A0000297928B818BBE016F5F7F4FFC01808122
:1013B00091810E940B3BAC01892B09F01FC1E09188
:1013C000970FF091980FA281B381FD012189328995
:1013D00089819A8109C12A31310519F0EE24FF244F
:1013E00016C0FD01E480F580E091970FF091980F11
:1013F0000280F381E02D0188F289E02D3297E81B0D
:10140000F90BF182E0821F5FFD01A281B381FD0132
:1014100042815381FA018081918180709E73892F6E
:10142000992786958530910509F062C0BE016F5FEE
:101430007F4FCD010E94173FAC01892B09F0DEC020
:10144000212F60E070E02150022F112707FD109539
:101450002F5F1BC089819A81E091970FF091980FBF
:101460000280F381E02DA189B2891297B28BA18B02
:10147000F801E61BF70BEE0FFF1FE80FF91F8D9128
:101480009C91958B848B6F5F7F4F215027FFE2CF1C
:10149000E114F10429F0E981FA81F58AE48A0CC0AB
:1014A000E091970FF091980F0280F381E02D8189F0
:1014B00092890297928B818BA091970FB091980F90
:1014C00029813A81FD0182819381F901938382838D
:1014D000F1E0DF22F90183898E7F8D29838BE091F2
:1014E000970FF091980F89819A819383828386C0A8
:1014F0000C9719F04DEE50E081C019300CF07CC013
:101500001093800F212F60E070E02150022F1127EF
:1015100007FD10952F5F1FC0D801A61BB70BE091E8
:10152000970FF091980F82819381FC01E188F288F6
:10153000EEEFFFEFEE0EFF1EFC01F28AE18AF701EB
:1015400080819181AA0FBB1FA859B04FFD01928FD6
:10155000818F6F5F7F4F215027FFDECFE091970F84
:10156000F091980F0280F381E02D81899289029792
:10157000928B818B5A834983FA01938181E0809316
:101580007E0FE92FFF27E7FDF09597FD05C0EE0FD1
:10159000FF1FE55FFD4F07C0EE0FFF1FF095E195C0
:1015A000FF4FE050FF4F0190F081E02D8091970FA9
:1015B0009091980F02960995AC0110927E0F1092AF
:1015C0007F0F8D3F910519F440E050E017C0E09186
:1015D000970FF091980FA281B381FD012189328983
:1015E00080917C0F90917D0FF901819391939F01E0
:1015F000FD01328B218B02C04CEE50E0CA012296D5
:101600000FB6F894DEBF0FBECDBFDF91CF911F9113
:101610000F91FF90EF90DF900895CF93DF93CDB7B8
:10162000DEB724970FB6F894DEBF0FBECDBFBE0164
:101630006F5F7F4F0E94173F009789F4BE016D5F77
:101640007F4F89819A810E94E231009741F46B813A
:101650007C818091950F9091960F0E94E5262496AB
:101660000FB6F894DEBF0FBECDBFDF91CF910895C6
:10167000CF93DF93CDB7DEB724970FB6F894DEBFD4
:101680000FBECDBFAE014F5F5F4F0E942242009759
:1016900089F469817A8180919A0F90919B0FAE01B4
:1016A0004D5F5F4F0E944F3D009721F48B819C81DD
:1016B0000E940D0B24960FB6F894DEBF0FBECDBF6F
:1016C000DF91CF910895CF93DF93CDB7DEB7229707
:1016D0000FB6F894DEBF0FBECDBF8091990F81FF8A
:1016E00006C08091970F9091980F892BE9F5E091B2
:1016F000950FF091960F82819381892B29F4109296
:10170000980F1092970F27C080915A0F8F5F809388
:101710005A0FE091950FF091960F9927228133810E
:101720008217930714F010925A0F60915A0F77277F
:101730008091950F9091960FAE014F5F5F4F0E9481
:1017400066249C0189819A819093980F8093970FCA
:101750002115310559F48091990F8E7F8093990F4F
:101760008091990F8093990F20E030E0C901229673
:101770000FB6F894DEBF0FBECDBFDF91CF910895B5
:101780003F924F925F926F927F928F929F92AF9211
:10179000BF92CF92DF92EF92FF920F931F93CF935E
:1017A000DF93CDB7DEB72C970FB6F894DEBF0FBE30
:1017B000CDBF382E1A8219821C821B821E821D8286
:1017C00018861F821A8619860E94630B009711F0F3
:1017D0000C944E24EE24FF2437E0632E712C6C0E03
:1017E0007D1E2E010894411C511C23E0822E912C59
:1017F0008C0E9D1E95E0A92EB12CAC0EBD1E8091C5
:10180000970F9091980F892B31F4332011F00C949D
:101810004A240C94432480915B0F8F5F60E30E9405
:10182000A94690935B0F992391F4E091950FF09165
:10183000960F82819381029754F08091990F8E7F49
:101840008093990F8091990F81608093990F809177
:10185000990F80FF0BC08AEE91E00E9441430E94E5
:10186000630B7C01892B11F00C944A24E091970FB3
:10187000F091980F62817381695F7F4FE091970FBC
:10188000F091980F0280F381E02D868199270E94C4
:10189000623A182F9927AA27BB27FC013197E53810
:1018A000F10510F00C942424E75AFF4FEE0FFF1FB0
:1018B0000590F491E02D0994E091970FF091980F25
:1018C000A281B381FD01818992890297928B818BDC
:1018D000DC018D919C919A83898391CFE091970F40
:1018E000F091980F0280F381E02D0188F289E02DBC
:1018F0003297808191819A838983E091970FF0914B
:10190000980F8091970F9091980F0280F381E02DAE
:10191000A189B2891297FC0182819381FC0181899E
:1019200092890497FC01808191818D939C93E09131
:10193000970FF091980F0280F381E02D0188F289D2
:10194000E02D34974EC0E091970FF091980F0280F0
:10195000F381E02D0188F289E02D32978081918119
:101960009A838983E091970FF091980F8091970F58
:101970009091980F0280F381E02DA189B28912978E
:10198000FC0182819381FC01818992890497FC0189
:10199000808191818D939C93E091970FF091980FA6
:1019A0008091970F9091980F0280F381E02DA1898B
:1019B000B2891497FC0182819381FC01818992890B
:1019C0000697FC01808191818D939C93E091970F04
:1019D000F091980F0280F381E02D0188F289E02DCB
:1019E000369789819A819183808309CFE091970FFF
:1019F000F091980F0280F381E02D0188F289E02DAB
:101A00003297808191819A838983E091970FF09139
:101A1000980F8091970F9091980F0280F381E02D9D
:101A2000A189B2891297FC0182819381FC0181898D
:101A300092890497FC01808191818D939C93E09120
:101A4000970FF091980F8091970F9091980F0280C7
:101A5000F381E02DA189B2891497FC0182819381E1
:101A6000FC01818992890697FC01808191818D9387
:101A70009C93E091970FF091980F8091970F909120
:101A8000980F0280F381E02DA189B2891697FC019D
:101A900082819381FC01818992890897FC01808170
:101AA00091818D939C93E091970FF091980F028014
:101AB000F381E02D0188F289E02D389792CFE091F3
:101AC000970FF091980F0280F381E02D0188F28941
:101AD000E02D32970190F081E02D8081918180701E
:101AE0009E738050924011F00C94182488CEE0919F
:101AF000970FF091980FA281B381FD01818992899E
:101B00000297928B818BDC018D919C919A838983C2
:101B1000B4010E94D242FCC3E091970FF091980F5C
:101B2000A281B381FD01818992890297928B818B79
:101B3000DC018D919C919A8389830E945629882388
:101B400079F0E091970FF091980FA281B381FD0198
:101B50002189328980916C0F90916D0F0C940F2424
:101B6000E091970FF091980FA281B381FD01218937
:101B7000328980916A0F90916B0F0C940F24E09141
:101B8000970FF091980F0280F381E02D0188F28980
:101B9000E02D32970190F081E02D8081918180705D
:101BA0009E738050924011F00C941824E091970F8E
:101BB000F091980FA281B381FD01818992890297EA
:101BC000928B818BDC018D919C919A838983B401E6
:101BD0000E94BB429DC3E091970FF091980FA281A4
:101BE000B381FD01818992890297928B818BDC01FF
:101BF0006D917C917A836983E091970FF091980FB2
:101C0000A281B381FD01818992890297928B818B98
:101C1000DC01ED91FC91FC83EB83808191818070EC
:101C20009E738050904211F00C941824CF010E94B2
:101C3000E5260C940623E091970FF091980FA2816E
:101C4000B381FD01818992890297928B818BDC019E
:101C50006D917C917C836B83E091970FF091980F4D
:101C60000280F381E02D0188F289E02D3297808196
:101C700091819A838983A5010E946E427C01892B00
:101C800011F00C942724E091970FF091980F0280A7
:101C9000F381E02D0188F289E02D32978D819E81BC
:101CA000A2CEE091970FF091980F0280F381E02D82
:101CB0000188F289E02D3297808191819A8389830E
:101CC000B4010E949F2E7C01892B11F00C942724D3
:101CD000E091970FF091980F0280F381E02D018839
:101CE000F289E02D32978B819C817DCEE091970F18
:101CF000F091980F0280F381E02D0188F289E02DA8
:101D000032970190F081E02D8081918180709E73E7
:101D10008050924009F045C0E091970FF091980FE4
:101D20000280F381E02D0188F289E02D3497019043
:101D3000F081E02D8081918180709E73805092406F
:101D400081F5E091970FF091980FA281B381FD0189
:101D5000818992890297928B818BDC018D919C9174
:101D60009A838983E091970FF091980FA281B381B4
:101D7000FD012189328922503040328B218BF901BB
:101D8000A081B181BC83AB83FC01628173818481BA
:101D90009581FD0122813381448155810E948A46CB
:101DA0003EC7E091970FF091980F0280F381E02DEC
:101DB0000188F289E02D32970190F081E02D808139
:101DC000918180709E738050924011F00C94182481
:101DD000E091970FF091980F0280F381E02D018838
:101DE000F289E02D34970190F081E02D808191817E
:101DF00080709E738050904211F00C941824E091F2
:101E0000970FF091980FA281B381FD01818992898A
:101E10000297928B818BDC01ED91FC91FA83E9832F
:101E20008081918180709E738050924011F00C945B
:101E30001824628173817A876987E091970FF09106
:101E4000980FA281B381FD01818992890297928BBB
:101E5000818BDC018D919C919C838B83A5010E94D9
:101E60007A27E0C6E091970FF091980F0280F381F6
:101E7000E02D0188F289E02D32970190F081E02D6C
:101E80008081918180709E738050924011F00C94FB
:101E90001824E091970FF091980F0280F381E02DC4
:101EA0000188F289E02D34970190F081E02D808146
:101EB000918180709E738050924011F00C94182490
:101EC000E091970FF091980F0280F381E02D018847
:101ED000F289E02D32970190F081E02D828193818B
:101EE000A481B5810097A105B10511F40C941C24BF
:101EF000E091970FF091980FA281B381FD01818944
:101F000092890297928B818BDC012D913C913A83CF
:101F10002983E091970FF091980FA281B381FD0181
:101F2000818992890297928B818BDC01ED91FC91E2
:101F3000FC83EB836281738184819581F901228125
:101F40003381448155810E94C846CA01B90167C6E0
:101F5000E091970FF091980F0280F381E02D0188B6
:101F6000F289E02D32970190F081E02D80819181FE
:101F700080709E738050924011F00C941824E09170
:101F8000970FF091980F0280F381E02D0188F2897C
:101F9000E02D34970190F081E02D80819181807057
:101FA0009E738050924011F00C941824E091970F8A
:101FB000F091980F0280F381E02D0188F289E02DE5
:101FC00032970190F081E02D82819381A481B581C7
:101FD0000097A105B10511F40C941C24E091970F12
:101FE000F091980FA281B381FD01818992890297B6
:101FF000928B818BDC012D913C913A832983E09176
:10200000970FF091980FA281B381FD018189928988
:102010000297928B818BDC01ED91FC91FC83EB8329
:102020006281738184819581F901228133814481A8
:1020300055810E94C846F3C5E091970FF091980F23
:102040000280F381E02D0188F289E02D3297019022
:10205000F081E02D8081918180709E73805092404C
:1020600011F00C941824E091970FF091980F0280D2
:10207000F381E02D0188F289E02D34970190F08101
:10208000E02D8081918180709E738050924011F08C
:102090000C941824E091970FF091980FA281B381CE
:1020A000FD01818992890297928B818BDC018D9150
:1020B0009C919A838983E091970FF091980FA28168
:1020C000B381FD012189328922503040328B218B2E
:1020D000F901A081B181BC83AB83FC016281738172
:1020E00084819581FD012281338144815581620F74
:1020F000731F841F951F93C5E091970FF091980F60
:102100000280F381E02D0188F289E02D3297019061
:10211000F081E02D8081918180709E73805092408B
:1021200011F00C941824E091970FF091980F028011
:10213000F381E02D0188F289E02D34970190F08140
:10214000E02D8081918180709E738050924011F0CB
:102150000C941824E091970FF091980FA281B3810D
:10216000FD01818992890297928B818BDC012D91EF
:102170003C913A832983E091970FF091980FA281C7
:10218000B381FD01818992890297928B818BDC0159
:10219000ED91FC91FC83EB83628173818481958155
:1021A000F9012281338144815581621B730B840BB9
:1021B000950B35C5E091970FF091980FA281B381EF
:1021C000FD01818992890297928B818BDC016D914F
:1021D0007C917A836983E091970FF091980FA281A7
:1021E000B381FD01818992890297928B818BFC01D9
:1021F000A081B181BC83AB832D913C91119720705C
:102200003E73232F332726952131310521F4A50173
:10221000CD010C94A11FFB018081918180709E7380
:10222000892F992786958130910549F462817381C0
:102230007A876987A501CD010E94E82EF3C44997EA
:1022400011F00C94182420313105B9F4FB0186817A
:102250009781FC0122813381FB0184819581FC01FE
:1022600042815381FB0182819381FC0162817381F0
:102270008501CD010E940227D6C42430310511F01A
:102280000C941824FB0186819781FC012281338103
:10229000FB0184819581FC0142815381FB01828194
:1022A0009381FC01628173818501CD010E94953289
:1022B000BAC4E091970FF091980FA281B381FD010C
:1022C000818992890297928B818BDC01ED91FC913F
:1022D000FA83E9838081918180709E73892F992789
:1022E00086958330910521F4FC83EB830C94732352
:1022F0008430910529F4B401CF010E94333308C022
:10230000409711F00C941824B401CF010E94E927E2
:102310007C01E114F10411F00C9427240C94732334
:10232000E091970FF091980FA281B381FD0181890F
:1023300092890297928B818BDC012D913C913A839B
:102340002983E091970FF091980FA281B381FD014D
:10235000818992890297928B818BDC01ED90FC90B0
:10236000FC82EB82F9018081918180709E738050A4
:10237000924011F00C944C24D7018D919C91807067
:102380009E73892F992786958031910551F4F70125
:1023900042815381F90162817381850121E030E03E
:1023A0004DC0049711F00C941824F7014281538119
:1023B000F90162817381850121E030E04FC0E09135
:1023C000970FF091980FA281B381FD0181899289C5
:1023D0000297928B818BDC012D913C913A8329836A
:1023E000E091970FF091980FA281B381FD0181894F
:1023F00092890297928B818BDC01ED90FC90FC829C
:10240000EB82F9018081918180709E7380509240AF
:1024100011F00C944C24D7018D919C9180709E7387
:10242000892F992786958031910561F4F9014281C0
:102430005381850121E030E060E070E0C7010E9437
:102440000227F0C3049711F00C941824F90142817B
:102450005381850121E030E060E070E0C7010E9417
:102460009532E0C3E091970FF091980FA281B3816C
:10247000FD01818992890297928B818BDC014D91BC
:102480005C915A834983E091970FF091980FA28154
:10249000B381FD01818992890297928B818BDC0146
:1024A0002D913C913C832B83E091970FF091980FF5
:1024B000A281B381FD01818992890297928B818BE0
:1024C000DC01ED90FC90FE82ED82FA018081918129
:1024D00080709E738050924011F00C944C24D9016E
:1024E0008D919C9180709E738050924011F00C945D
:1024F0004C24F7018081918180709E73892F9927E8
:1025000086958031910571F4FA0142815381F90178
:1025100062817381830121E030E0C7010E940227BC
:102520000C940124049711F00C941824FA014281B0
:102530005381F90162817381830121E030E0C70199
:102540000E9495320C940124E091970FF091980F1E
:10255000A281B381FD01818992890297928B818B3F
:10256000DC018D919C919A838983E091970FF09182
:10257000980FA281B381FD01218932892250304018
:10258000328B218BD9012D913C913C832B83FC0113
:102590004281538160E070E044C0E091970FF09178
:1025A000980FA281B381FD01818992890297928B54
:1025B000818BDC016D917C917A836983E091970F27
:1025C000F091980FA281B381FD01818992890297D0
:1025D000928B818BDC010D911C911C830B83E0910C
:1025E000970FF091980FA281B381FD0181899289A3
:1025F0000297928B818BDC012D913C913E832D8340
:10260000FB018081918180709E738050924011F017
:102610000C944C24F80142815381FB016281738147
:10262000C8010E9412260C940623E091970FF091A6
:10263000980FA281B381FD01818992890297928BC3
:10264000818BDC014D915C915A834983E091970F16
:10265000F091980FA281B381FD018189928902973F
:10266000928B818BDC010D911C911C830B83E0917B
:10267000970FF091980FA281B381FD018189928912
:102680000297928B818BDC012D913C913E832D83AF
:10269000FA018081918180709E738050924011F088
:1026A0000C944C24FA014281538160E070E0B8CF71
:1026B000E091970FF091980FA281B381FD0181897C
:1026C00092890297928B818BDC014D915C915A83A8
:1026D0004983E091970FF091980FA281B381FD019A
:1026E000818992890297928B818BDC016D917C911B
:1026F0007C836B83E091970FF091980FA281B38157
:10270000FD01818992890297928B818BDC010D9169
:102710001C911E830D83E091970FF091980FA28179
:10272000B381FD01818992890297928B818BDC01B3
:102730002D913C9138872F83FA018081918180709F
:102740009E738050924011F00C944C24DB018D91CB
:102750009C9180709E738050924011F00C944C2498
:10276000FA0159CFE091970FF091980FA281B381B0
:10277000FD01818992890297928B818BDC018D9179
:102780009C919A838983B40180E090E00E9470322A
:102790007C01892B11F00C9427242B813C81E98149
:1027A000FA814281538160E070E0CF013ACFE0913D
:1027B000970FF091980FA281B381FD0181899289D1
:1027C0000297928B818BDC012D913C913A83298376
:1027D000E091970FF091980FA281B381FD0181895B
:1027E00092890297928B818BDC018D919C919C83C5
:1027F0008B83F9018081918180709E73805092401B
:1028000011F00C944C24B50180E090E00E947032ED
:102810007C01892B11F00C9427242D813E81AB8102
:10282000BC81FD0142815381E981FA81628173811A
:10283000CD01F7CEE091970FF091980FA281B3816F
:10284000FD01818992890297928B818BDC012D9108
:102850003C913A832983E091970FF091980FA281E0
:10286000B381FD01818992890297928B818BDC0172
:102870008D919C919C838B83F901808191818070E3
:102880009E738050924011F00C944C24B50180E06E
:1028900090E00E9470327C01892B11F00C94272467
:1028A0002D813E81E981FA814281538160E070E0AF
:1028B0008B819C81B6CEE091970FF091980FA28109
:1028C000B381FD01818992890297928B818BDC0112
:1028D0002D913C913A832983E091970FF091980FC5
:1028E000A281B381FD01818992890297928B818BAC
:1028F000DC014D915C915C834B83E091970FF091EB
:10290000980FA281B381FD01818992890297928BF0
:10291000818BDC018D919C919E838D83F901808157
:10292000918180709E738050924011F00C944C24E1
:10293000DA018D919C9180709E738050924011F0CD
:102940000C944C24B30180E090E00E9470327C0132
:10295000892B11F00C9427242F813885E981FA8185
:1029600042815381EB81FC81628173818D819E81E3
:1029700058CEE091970FF091980FA281B381FD019D
:10298000818992890297928B818BDC016D917C9178
:102990007A836983E091970FF091980FA281B381B8
:1029A000FD01818992890297928B818BDC012D91A7
:1029B0003C913C832B83E091970FF091980FA2817B
:1029C000B381FD01818992890297928B818BDC0111
:1029D0004D915C915E834D83F9018081918180707E
:1029E0009E73892F992786958031910591F4DB019B
:1029F0008D919C9180709E738050924011F00C9448
:102A00001824FB0162817381C9010E94A6250C94E0
:102A10000623419711F00C94182460C5E091970F9C
:102A2000F091980FA281B381FD018189928902976B
:102A3000928B818BDC012D913C913A832983E0912B
:102A4000970FF091980FA281B381FD01818992893E
:102A50000297928B818BDC010D911C911C830B835F
:102A6000F8018081918180709E73892F99278695C6
:102A70008031910591F4D9018D919C9180709E7364
:102A80008050924011F00C941824F90162817381F6
:102A9000C8010E9455250C940623419711F00C940F
:102AA0001824B901C8010CC6E091970FF091980F56
:102AB0000280F381E02D0188F289E02D32970190A8
:102AC000F081E02D8081918180709E7380509240D2
:102AD00011F00C941824E091970FF091980F028058
:102AE000F381E02D0188F289E02D34970190F08187
:102AF000E02D8081918180709E738050924011F012
:102B00000C941824E091970FF091980FA281B38153
:102B1000FD01818992890297928B818BDC012D9135
:102B20003C913A832983E091970FF091980FA2810D
:102B3000B381FD01818992890297928B818BDC019F
:102B4000ED91FC91FC83EB8362817381848195819B
:102B5000F901028004C0660F771F881F991F0A942D
:102B6000D2F75DC0E091970FF091980F0280F3814A
:102B7000E02D0188F289E02D32970190F081E02D5F
:102B80008081918180709E738050924011F00C94EE
:102B90001824E091970FF091980F0280F381E02DB7
:102BA0000188F289E02D34970190F081E02D808139
:102BB000918180709E738050924011F00C94182483
:102BC000E091970FF091980FA281B381FD01818967
:102BD00092890297928B818BDC012D913C913A83F3
:102BE0002983E091970FF091980FA281B381FD01A5
:102BF000818992890297928B818BDC01ED91FC9106
:102C0000FC83EB836281738184819581F901028069
:102C100004C095958795779567950A94D2F7A50195
:102C20000E9422427C01E114F10411F00C9427244B
:102C30000C942921E091970FF091980F0280F38175
:102C4000E02D0188F289E02D32970190F081E02D8E
:102C50008081918180709E738050924011F00C941D
:102C60001824E091970FF091980F0280F381E02DE6
:102C70000188F289E02D34970190F081E02D808168
:102C8000918180709E738050924011F00C941824B2
:102C9000E091970FF091980FA281B381FD01818996
:102CA00092890297928B818BDC018D919C919A8302
:102CB0008983E091970FF091980FA281B381FD0174
:102CC0002189328922503040328B218BF901A08139
:102CD000B181BC83AB83FC01628173818481958166
:102CE000FD01228133814481558162237323842332
:102CF000952395CFE091970FF091980F0280F38183
:102D0000E02D0188F289E02D32970190F081E02DCD
:102D10008081918180709E738050924011F00C945C
:102D20001824E091970FF091980F0280F381E02D25
:102D30000188F289E02D34970190F081E02D8081A7
:102D4000918180709E738050924011F00C941824F1
:102D5000E091970FF091980FA281B381FD018189D5
:102D600092890297928B818BDC018D919C919A8341
:102D70008983E091970FF091980FA281B381FD01B3
:102D80002189328922503040328B218BF901A08178
:102D9000B181BC83AB83FC016281738184819581A5
:102DA000FD01228133814481558162277327842765
:102DB000952735CFE091970FF091980F0280F3811E
:102DC000E02D0188F289E02D32970190F081E02D0D
:102DD0008081918180709E738050924011F00C949C
:102DE0001824E091970FF091980F0280F381E02D65
:102DF0000188F289E02D34970190F081E02D8081E7
:102E0000918180709E738050924011F00C94182430
:102E1000E091970FF091980FA281B381FD01818914
:102E200092890297928B818BDC018D919C919A8380
:102E30008983E091970FF091980FA281B381FD01F2
:102E40002189328922503040328B218BF901A081B7
:102E5000B181BC83AB83FC016281738184819581E4
:102E6000FD012281338144815581622B732B842B98
:102E7000952BD5CEE091970FF091980FA281B38159
:102E8000FD01818992890297928B818BDC018D9162
:102E90009C919A83898360E00E9487297C01892B19
:102EA00011F00C942724163411F00C94FF0B8AE0D7
:102EB0000E949C3A0C940623E091970FF091980F92
:102EC0000280F381E02D03851485A7010DC0C801A0
:102ED0001C830B8389010E94F3057C01892B11F06F
:102EE0000C94272440E050E0F8018681813029F0DD
:102EF000278130852115310551F77A01452B11F0D5
:102F00000C942724E091970FF091980FA281B38140
:102F1000F80182819381FD01928B818BE091970F63
:102F2000F091980FA281B381F80184819581FD0110
:102F300090878783E091970FF091980FA281B381DA
:102F4000F80187819085FD0194878387C8010E94DD
:102F5000F3050C940623E091970FF091980F2281CE
:102F60003381F901A189B289E091970FF091980F0F
:102F70000280F381E02D858596850C941322E091E3
:102F8000970FF091980FA281B381FD0181899289F9
:102F90000297928B818BDC014D915C915C834B831A
:102FA000E091970FF091980F228133813A83298322
:102FB000E091970FF091980F0280F381E02D8281CC
:102FC0009381892B51F4E091970FF091980F15821E
:102FD0001482EE24FF240C942724A091970FB09123
:102FE000980FE091970FF091980F0280F381E02DF8
:102FF00082819381FD0193838283F901838980FD1E
:1030000010C0E091970FF091980FA281B381FD015C
:1030100081899289FC0141935193CF01FD01928BEB
:10302000818B89819A8142C0E091970FF091980F2E
:10303000A281B381FD01818992890297928B818B54
:10304000DC01ED91FC91FA83E98364817581E09163
:10305000970FF091980F0280F381E02D858596857A
:103060000E94683E0C940623E091970FF091980F10
:103070000280F381E02DA385B485E091970FF09154
:10308000980F22813381FD0187819085F901948712
:103090008387E091970FF091980F22813381FD0192
:1030A00082819381F901928B818BCD010E94F3057E
:1030B000892B11F00C9427240C94FF0BE091970FAF
:1030C000F091980FA281B381FD01818992890297C5
:1030D000928B818BDC016D917C917A836983E09185
:1030E000970FF091980FA281B381FD018189928998
:1030F0000297928B818BDC014D915C915C834B83B9
:10310000E091970FF091980FA281B381FD01818921
:1031100092890297928B818BDC01ED91FC91FE8369
:10312000ED83DB018D919C9180709E738050924263
:1031300011F00C941824DA018D919C9180709E738B
:103140008050984011F00C941824808191818070F7
:103150009E738050964011F00C9418249301CF0177
:103160000E94DF3A0C940124E091970FF091980FA0
:1031700062817381695F7F4FE091970FF091980FA3
:103180000280F381E02D868199270E9427289A8763
:103190008987E091970FF091980FA281B381FD018B
:1031A0002189328922503040328B218BD9014D91B7
:1031B0005C915A834983E091970FF091980F0280B8
:1031C000F381E02D0480F581E02D0280F381E02D74
:1031D0000580F681E02D880F991FE80FF91F6481A3
:1031E00075817C836B83E091970FF091980F02803B
:1031F000F381E02D858596852AC2E091970FF091A5
:10320000980F62817381695F7F4FE091970FF09112
:10321000980F0280F381E02D868199270E9427284C
:103220009A878987E091970FF091980F0280F38138
:10323000E02D0480F581E02D0280F381E02D0580F2
:10324000F681E02D880F991FE80FF91F64817581C1
:103250007C836B83E091970FF091980F0280F3814C
:10326000E02D858596852CC2E091970FF091980FFF
:10327000A281B381FD01818992890297928B818B12
:10328000DC018D919C919A838983BE01675F7F4F9A
:103290000E947D2E7C01892BA9F0E091970FF0917F
:1032A000980F62817381695F7F4FE091970FF09172
:1032B000980F0280F381E02D868199270E942728AC
:1032C0000C94272409851A85E091970FF091980FA7
:1032D00062817381695F7F4FE091970FF091980F42
:1032E0000280F381E02D868199270E942728081704
:1032F000190701F17EEEE72EF12C0C942724A4018E
:1033000089819A810E94E82E009711F00C944C2339
:10331000E091970FF091980FA281B381FD0121896F
:1033200032898B819C81F901819391939F01FD01E9
:10333000328B218B69857A85615070407A876987E5
:1033400077FFDDCF0C94FF0BE091970FF091980F72
:1033500062817381695F7F4FE091970FF091980FC1
:103360000280F381E02D868199270E9427289A8781
:103370008987E091970FF091980F0280F381E02DFB
:103380000188F289E02D3297808191819A83898327
:10339000B4010E941A2F7C018F3E910511F00C940C
:1033A0007323E091970FF091980FA281B381FD01F3
:1033B000818992890297928B818BDC018D919C91FE
:1033C0009A838983E091970FF091980F0280F3819F
:1033D000E02D8781908529853A85820F931F9087FC
:1033E0008783F1C4E091970FF091980F6281738108
:1033F000695F7F4FE091970FF091980F0280F38102
:10340000E02D868199270E9427289A878987E09155
:10341000970FF091980FA281B381FD018189928964
:103420000297928B818BDC01ED91FC91FA83E98309
:103430008081918180709E73892F9927869588302D
:103440009105A1F08630910589F08A31910521F42A
:103450000280F381E02D0AC08730910539F0893070
:10346000910521F00E9711F00C9420248481958110
:103470009C838B832B813C81F901808191818070B9
:103480009E738050924211F00C942424E091970F87
:10349000F091980F0280F381E02D0480F581E02DFA
:1034A0000280F381E02D85819681E985FA85EE0F12
:1034B000FF1FE80FF91F648175817E836D83E091A2
:1034C000970FF091980FA281B381FD0181899289B4
:1034D0000297928B818BDC014D915C91C901B7C041
:1034E000E091970FF091980F62817381695F7F4F30
:1034F000E091970FF091980F0280F381E02D868183
:1035000099270E9427289A878987E091970FF09141
:10351000980FA281B381FD01818992890297928BD4
:10352000818BDC01ED91FC91FA83E98380819181AB
:1035300080709E73892F9927869588309105A1F018
:103540008630910589F08A31910521F40280F3815A
:10355000E02D0AC08730910539F08930910521F0BE
:103560000E9711F00C942024848195819C838B8389
:10357000AB81BC818D919C91119780709E7380501E
:10358000924211F00C942424E091970FF091980F3F
:103590000280F381E02D0480F581E02D0280F3812B
:1035A000E02D85819681E985FA85EE0FFF1FE80FF2
:1035B000F91F648175817E836D83CD0181C0E091A7
:1035C000970FF091980F62817381695F7F4FE0914F
:1035D000970FF091980F0280F381E02D8681992753
:1035E0000E9427289A878987E091970FF091980F7A
:1035F000A281B381FD012189328922503040328B72
:10360000218BD9014D915C915A834983E091970FA9
:10361000F091980F0280F381E02D0480F581E02D78
:103620000280F381E02D0580F681E02D880F991F3F
:10363000E80FF91F648175817C836B83E091970F9C
:10364000F091980F0280F381E02D878590890E9488
:10365000EC3DDCC7E091970FF091980F6281738188
:10366000695F7F4FE091970FF091980F0280F3818F
:10367000E02D868199270E9427289A878987E091E3
:10368000970FF091980F0280F381E02D0480F5816F
:10369000E02D0280F381E02D0580F681E02D880F7A
:1036A000991FE80FF91F648175817A836983E0911E
:1036B000970FF091980F0280F381E02D8785908914
:1036C0000E94973DA3C7E091970FF091980F6281F8
:1036D0007381695F7F4FE091970FF091980F02809F
:1036E000F381E02D868199270E9427289A87898770
:1036F0008130910581F4E091970FF091980F02804D
:10370000F381E02D0188F289E02D3297808191814B
:103710009A83898369C18230910541F5E091970FC1
:10372000F091980F0280F381E02D0188F289E02D5D
:103730003297808191819A838983E091970FF091EC
:10374000980F0280F381E02D0188F289E02D3497F3
:10375000808191819C838B83E091970FF091980FEA
:10376000A281B381FD01218932894CC0039711F0F8
:103770000C942424E091970FF091980F0280F3812C
:10378000E02D0188F289E02D3297808191819A8322
:103790008983E091970FF091980F0280F381E02DDB
:1037A0000188F289E02D3497808191819C838B83FD
:1037B000E091970FF091980F0280F381E02D01883E
:1037C000F289E02D3697808191819E838D83E091EF
:1037D000970FF091980FA281B381FD012189328961
:1037E000F901819391939F01FD01328B218BE0912F
:1037F000970FF091980FA281B381FD012189328941
:103800008B819C81F901819391939F01FD01328B02
:10381000218B4DC1E091970FF091980F62817381D8
:10382000695F7F4FE091970FF091980F0280F381CD
:10383000E02D868199270E9427289A878987E09121
:10384000970FF091980F22813381F901A189B289F4
:10385000E091970FF091980F0280F381E02D0480A2
:10386000F581E02D0280F381E02D0780F085E02DC9
:10387000880F991FE80FF91F84819581D4C5E091C5
:10388000970FF091980F62817381695F7F4FE0918C
:10389000970FF091980F0280F381E02D8681992790
:1038A0000E9427289A878987E091970FF091980FB7
:1038B0000280F381E02D0480F581E02D0280F38108
:1038C000E02D0580F681E02D880F991FE80FF91F84
:1038D000648175817A836983E091970FF091980FE5
:1038E0000280F381E02DA401858596850E944F3DDD
:1038F0007C01883E910511F00C94891169817A81CF
:10390000E091970FF091980F0280F381E02DA401D0
:10391000878590890E944F3D7C01883E910511F07A
:103920000C94891169817A818091720F9091730F43
:10393000A4010E944F3D7C01883E910511F00C943A
:1039400089118FEF91E09F938F930E94234360E052
:1039500089819A810E9487298AE090E00E943A43F7
:103960007AEEE72EF12C0F900F9071C7E091970F30
:10397000F091980F62817381695F7F4FE091970F9B
:10398000F091980F0280F381E02D868199270E94A3
:1039900027289A878987B2010E9470327C01892B7F
:1039A00009F055C717C0E091970FF091980FA281C9
:1039B000B381FD014189528942505040528B418B65
:1039C000220F331F280F391FDA018D919C91F901C5
:1039D0009583848329853A85215030403A87298709
:1039E00089819A8137FFDFCFE091970FF091980F8F
:1039F000A281B381FD012189328911C7E091970F1E
:103A0000F091980F62817381695F7F4FE091970F0A
:103A1000F091980F0280F381E02D868199270E9412
:103A200027289A878987C2010E94C92517C0E0917B
:103A3000970FF091980FA281B381FD01818992893E
:103A40000297928B818BDC014D915C915C834B835F
:103A500060E070E089819A810E94E4257C01892BD5
:103A600009F0F5C689859A8501979A87898797FF16
:103A7000DECF19C0E091970FF091980F62817381AA
:103A8000695F7F4FE091970FF091980F0280F3816B
:103A9000E02D868199270E9427289A878987C2016D
:103AA0000E94FA3E7C01E114F10409F0D0C6E091D5
:103AB000970FF091980FA281B381FD01218932897E
:103AC00089819A81ACC6E091970FF091980F62813D
:103AD0007381695F7F4FE091970FF091980F02809B
:103AE000F381E02D868199270E9427289A8789876C
:103AF000E091970FF091980FA281B381FD01818928
:103B000092890297928B818BDC01ED91FC91FA8373
:103B1000E9838081918180709E73892F9927869592
:103B20008830910599F08630910581F08A319105B0
:103B300021F40280F381E02D09C08730910531F036
:103B40008930910519F00E9709F07AC68481958124
:103B50009C838B83AB81BC818D919C9111978070EC
:103B60009E738050924209F06FC6E091970FF091DA
:103B7000980F0280F381E02D0480F581E02D028012
:103B8000F381E02D85819681E985FA85EE0FFF1F8F
:103B9000E80FF91F648175817E836D83A301CD01D8
:103BA0000E944F3D2EC6E091970FF091980FA28191
:103BB000B381FD01818992890297928B818BDC010F
:103BC0008D919C919A838983E091970FF091980F42
:103BD000A281B381FD01818992890297928B818BA9
:103BE000DC018D919C919C838B83E091970FF091E8
:103BF000980F62817381695F7F4FE091970FF09119
:103C0000980F0280F381E02D868199270E94272852
:103C10009C019A87898709811A81F80180819181A5
:103C200080709E738050924009F06DC0EB80FC80E4
:103C3000D7018D919C9180709E738050924009F0C5
:103C400062C0F7014281538164817581F8018281EC
:103C50009381A481B5812430310509F440C0253019
:103C600031058CF42130310529F1223031051CF465
:103C7000232BC9F0E9C52230310519F12330310574
:103C800009F0E2C525C0283031052CF42630310575
:103C90000CF0CEC52AC02830310569F12930310534
:103CA00009F0D2C52CC0481759076A077B070CF0EA
:103CB00051C071C084179507A607B7070CF44AC016
:103CC0006AC0481759076A077B0709F043C063C0F9
:103CD000481759076A077B0709F05DC03BC0841786
:103CE0009507A607B707B4F556C0481759076A07DE
:103CF0007B0784F150C00E151F0561F54CC00E15F1
:103D00001F0541F148C0223031050CF49DC5243017
:103D100031053CF0265030402230310508F094C582
:103D20001EC080916A0F90916B0F9E838D836B8173
:103D30007C8189819A810E94472A882329F4898578
:103D40009A85029739F427C08F3F21F489859A8597
:103D5000039709F180916A0F90916B0F20C08091B9
:103D60006A0F90916B0F9E838D836B817C8189811B
:103D70009A810E94932A7C01009729F489859A856B
:103D8000069779F408C08F3F910509F060C58985D1
:103D90009A85079731F480916C0F90916D0F9E83F7
:103DA0008D83E091970FF091980FA281B381FD016F
:103DB000218932898D819E81F901819391939F019F
:103DC000FD01328B218BEE24FF240C94FF0BE0913C
:103DD000970FF091980F62817381695F7F4FE09137
:103DE000970FF091980F0280F381E02D868199273B
:103DF0000E9427289A878987E091970FF091980F62
:103E00000280F381E02D0480F581E02D0280F381B2
:103E1000E02D0580F681E02D880F991FE80FF91F2E
:103E2000848195819A838983E091970FF091980F0F
:103E3000A281B381FD012189328922503040328B29
:103E4000218BD9012D913C913E832D83E091970FD9
:103E5000F091980F0280F381E02D0188F289E02D26
:103E60003297208131813E832D83B4010E94FA284C
:103E70007C01892B09F0EBC4E091970FF091980F2A
:103E80000280F381E02D0188F289E02D32978B8149
:103E90009C8191838083E091970FF091980FA2818C
:103EA000B381FD01218932898B819C81F901819344
:103EB00091939F01FD01328B218B61E080E0A4C3CF
:103EC000E091970FF091980F0280F381E02D018827
:103ED000F289E02D3297808191819A838983E091E4
:103EE000970FF091980F62817381695F7F4FE09126
:103EF000970FF091980F0280F381E02D868199272A
:103F00000E9427289A878987E091970FF091980F50
:103F10000280F381E02D0480F581E02D0280F381A1
:103F2000E02D0580F681E02D880F991FE80FF91F1D
:103F3000648175817C836B83E981FA81A501848129
:103F400095810E944F3D0C941216E091970FF091CD
:103F5000980F62817381695F7F4FE091970FF091B5
:103F6000980F0280F381E02D868199270E942728EF
:103F70009A878987E091970FF091980F0280F381DB
:103F8000E02D27813085280F391F8DC0E091970FD4
:103F9000F091980F62817381695F7F4FE091970F75
:103FA000F091980F0280F381E02D868199270E947D
:103FB00027289A878987E091970FF091980F0280C0
:103FC000F381E02D0188F289E02D32978081918183
:103FD0000E945629882311F40C94FF0B28C0E0910D
:103FE000970FF091980F62817381695F7F4FE09125
:103FF000970FF091980F0280F381E02D8681992729
:104000000E9427289A878987E091970FF091980F4F
:104010000280F381E02D0188F289E02D32978081C2
:1040200091810E945629882311F00C94FF0BE09196
:10403000970FF091980F0280F381E02D8781908592
:1040400029853A85820F931FC2C0E091970FF091A6
:10405000980F62817381695F7F4FE091970FF091B4
:10406000980F0280F381E02D868199270E942728EE
:104070009A878987E091970FF091980FA091970FF9
:10408000B091980F42815381FD01A281B381FD015E
:10409000A481B581FD01A281B381FD012185328515
:1040A000280F391FFA01308727830C94FF0BE0910A
:1040B000970FF091980F62817381695F7F4FE09154
:1040C000970FF091980F0280F381E02D8681992758
:1040D0000E942728AC019A878987E091970FF09179
:1040E000980FA281B381FD01818992890297928BF9
:1040F000818BDC012D913C913A832983E091970FCC
:10410000F091980FA281B381FD0181899289029774
:10411000928B818BDC01CD90DC90DC82CB82F9012B
:104120008081918180709E738050924021F077EE63
:10413000E72EF12C8CC3D6018D919C9180709E73DB
:10414000892F992786958430910511F5F90102810F
:10415000138124813581F60182819381AA2797FDFD
:10416000A095BA2F081719072A073B072CF5F80165
:10417000EE0FFF1FEC0DFD1D848195819E838D83C5
:104180000F5F1F4F2F4F3F4FA201C901B80137C02A
:10419000409709F04DC3F9010281138124813581D3
:1041A000F60182819381AA2797FDA095BA2F08175F
:1041B00019072A073B077CF0E091970FF091980FC1
:1041C0000280F381E02D87819085840F951F908771
:1041D00087830C94FF0BA501B801C6010E946624D9
:1041E0007C01892B09F033C3E981FA8162817381F3
:1041F000848195816F5F7F4F8F4F9F4FA2010E94F7
:1042000022427C01892B09F022C3E091970FF091A3
:10421000980FA281B381FD01218932898B819C8114
:10422000F901819391939F01FD01328B218BE091E4
:10423000970FF091980FA281B381FD0121893289F6
:1042400089819A81F901819391939F01FD01328BBC
:10425000218BE091970FF091980FA281B381FD011E
:10426000218932898D819E81DAC2E091970FF09188
:10427000980F62817381695F7F4FE091970FF09192
:10428000980F0280F381E02D868199270E942728CC
:104290009A878987E091970FF091980F0280F381B8
:1042A000E02D0480F581E02D0280F381E02D058072
:1042B000F681E02D880F991FE80FF91F6481758141
:1042C0007A836983E091970FF091980F0280F381D0
:1042D000E02DA401878590890E944F3D7C01883E96
:1042E000910511F00C94891169817A818091720F86
:1042F0009091730FA4010E944F3D7C01883E91056F
:1043000011F00C9489110AEEE02EF12CA0C2E0917C
:10431000970FF091980F62817381695F7F4FE091F1
:10432000970FF091980F0280F381E02D86819927F5
:104330000E9427289A878987BE01655F7F4F89E0A1
:1043400090E00E942F097C01892B09F080C2AB8587
:10435000BC85BA83A9838D919C911197917C9662BB
:1043600011969C938E93E091970FF091980F028095
:10437000F381E02D81899289FD0193838283E0910D
:10438000970FF091980F0280F381E02D878190853F
:1043900029853A85820F931FFD019583848381E0EF
:1043A0008683E091970FF091980F0280F381E02DC2
:1043B00083859485FD0190878783E091970FF09125
:1043C000980F0280F381E02DB487A3870C94FF0B34
:1043D000E091970FF091980F62817381695F7F4F31
:1043E000E091970FF091980F0280F381E02D868184
:1043F00099270E9427289A878987E091970FF09143
:10440000980F22813381F901A189B289E091970F38
:10441000F091980F0280F381E02D880F991FE80F2B
:10442000F91F848995898D939D93F901B28BA18B96
:104430000C94FF0BE091970FF091980F62817381BC
:10444000695F7F4FE091970FF091980F0280F381A1
:10445000E02D868199270E9427289A878987E091F5
:10446000970FF091980F22813381E091970FF0918F
:10447000980FA281B381FD01418952894250504079
:10448000528B418B880F991F280F391FDA018D91AC
:104490009C91F901958B848B0C94FF0BE091970F05
:1044A000F091980F02811381E091970FF091980F8E
:1044B00062817381695F7F4FE091970FF091980F50
:1044C0000280F381E02D868199270E942728F80138
:1044D000928781870C94FF0BE091970FF091980FD2
:1044E00062817381695F7F4FE091970FF091980F20
:1044F0000280F381E02D868199270E9427289A87E0
:104500008987019709F0A0C1E091970FF091980F6A
:10451000A281B381FD01818992890297928B818B5F
:10452000DC01ED91FC91FA83E983808191818070B7
:104530009E7380509C4109F07BC1E091970FF091F0
:10454000980FA281B381FD01218932898091680F82
:104550009091690FF901819391939F01FD01328B35
:10456000218BE091970FF091980FA281B381FD010B
:10457000218932898091680F9091690FF9018193A7
:1045800091939F01FD01328B218BE091970FF09168
:10459000980FA281B381FD012189328989819A8195
:1045A000F901819391939F01FD01328B218B6091E1
:1045B000700F7091710FE981FA81A4018481958156
:1045C0000E944F3D7C01892B09F041C1EB81FC81A8
:1045D000E280F380FFEFEF22FF2439C1E091970FD3
:1045E000F091980F62817381695F7F4FE091970F1F
:1045F000F091980F0280F381E02D868199270E9427
:1046000027289A87898760E00E948E097C01892B80
:1046100009F01DC10C94FF0BE091970FF091980FDA
:1046200062817381695F7F4FE091970FF091980FDE
:104630000280F381E02D868199270E9427289A879E
:104640008987E091970FF091980FA281B381FD01C6
:10465000818992890297928B818BDC018D919C914B
:104660009A838983E091970FF091980F0280F381EC
:10467000E02D67857089A4010E9449407C01892B47
:1046800009F0E5C089859A851816190664F5B50103
:104690000E9470320097C9F07C01D9C0E091970F59
:1046A000F091980FA281B381FD0141895289425056
:1046B0005040528B418B220F331F280F391FDA01D4
:1046C0008D919C91F9019583848329853A852150A8
:1046D00030403A8729878D819E8137FFDFCFEB817C
:1046E000FC8191878087E091970FF091980FA281CC
:1046F000B381FD01218932898B819C8190C0E09139
:10470000970FF091980F62817381695F7F4FE091FD
:10471000970FF091980F0280F381E02D8681992701
:104720000E942728AC019A8789870297029708F090
:104730007FC0E091970FF091980FA281B381FD01A6
:10474000818992890297928B818BDC012D913C911A
:104750003A832983E091970FF091980FA281B3815A
:10476000FD01818992890297928B818BDC018D9169
:104770009C919C838B834330510591F4E091970F7A
:10478000F091980FA281B381FD01818992890297EE
:10479000928B818BDC018D919C919E838D830FC0C8
:1047A0003C832B833E832D83A20161E070E080E097
:1047B00090E00E9422427C01892B09F048C0498187
:1047C0005A81FA018081918180709E73805092405D
:1047D00079F5AB81BC818D919C91119780709E730E
:1047E0008050924029F5ED81FE8180819181807019
:1047F0009E7380509240E1F49301BD01CF010E946D
:104800004E307C01892B19F5E091970FF091980FAC
:10481000A281B381FD01218932898F819885F901B7
:10482000819391939F01FD01328B218B0C94FF0B9F
:104830008DEEE82EF12C0BC003EEE02EF12C07C01C
:1048400015EEE12EF12C03C0BCEEEB2EF12CE09125
:10485000950FF091960F8281938102971CF4E114D9
:10486000F104C1F46091970F7091980F8091950FAA
:104870009091960F0E9476257C011092980F1092CD
:10488000970F892B39F40E94630B7C01892B11F45B
:104890000C94FF0BC70102C08DEE90E02C960FB672
:1048A000F894DEBF0FBECDBFDF91CF911F910F9166
:1048B000FF90EF90DF90CF90BF90AF909F908F9040
:1048C0007F906F905F904F903F900895FC018081A2
:1048D000918180709E738050904219F08DEE90E02F
:1048E000089577FF06C082819381680F791F77FD55
:1048F0000AC082819381681779072CF4848195819D
:104900000E945C2C089587EE90E00895AF92BF92CC
:10491000CF92DF92EF92FF920F931F93CF93DF938B
:10492000CDB7DEB722970FB6F894DEBF0FBECDBF6E
:104930008C01FC018081918180709E738050904237
:1049400019F08DEE90E030C08BE50E949C3AF801A2
:10495000C480D580EE24FF245E010894A11CB11C04
:104960001AC0E114F10431F08CE20E949C3A80E21A
:104970000E949C3AA501B701C6010E945C2C0097D9
:1049800099F461E089819A810E948729009761F4F6
:104990000894E11CF11CF80182819381E816F90664
:1049A00004F38DE50E949C3A22960FB6F894DEBF80
:1049B0000FBECDBFDF91CF911F910F91FF90EF9070
:1049C000DF90CF90BF90AF900895FC0180819181DE
:1049D00080709E738050904219F08DEE90E00895A3
:1049E000848195810E943C2D08956F927F928F92D1
:1049F0009F92AF92BF92CF92DF92EF92FF920F936E
:104A00001F93CF93DF93CDB7DEB722970FB6F894FD
:104A1000DEBF0FBECDBFFC015B014A0180819181E9
:104A200080709E738050904219F00DEE10E027C008
:104A3000C480D580EE24FF243E010894611C711CC3
:104A400016C0A301B701C6010E945C2C8C01892B02
:104A5000B1F4B50189819A810E94472A882321F403
:104A6000F401F182E0820BC00894E11CF11CF60114
:104A700086819781E816F90620F30EEE10E0C80152
:104A800022960FB6F894DEBF0FBECDBFDF91CF9157
:104A90001F910F91FF90EF90DF90CF90BF90AF905C
:104AA0009F908F907F906F900895CF93DF93EC014C
:104AB0008881998180709E738050904219F02DEE0C
:104AC00030E010C077FF04C08A819B81680F791F96
:104AD0008C819D810E94B52C9C018A819B810197CC
:104AE0009B838A83C901DF91CF9108950F931F9310
:104AF000CF93DF93CDB7DEB722970FB6F894DEBF22
:104B00000FBECDBF8C01FC018081918180709E73AE
:104B10008050904219F08DEE90E00DC0AE014F5FD5
:104B20005F4FC8010E94F524009729F469817A81BA
:104B3000C8010E94552522960FB6F894DEBF0FBE1D
:104B4000CDBFDF91CF911F910F910895FC019A0184
:104B50008081918180709E738050904219F08DEE1B
:104B600090E0089577FF06C082819381680F791FD6
:104B700077FD0CC082819381681779073CF4AB0103
:104B8000B901848195810E948A2C089587EE90E076
:104B90000895CF93DF93EC01BC0186E090E00E9482
:104BA0002F09009771F4E881F98180819181917CCE
:104BB00090629183808313821282CF0104960E94B7
:104BC000642DDF91CF910895CF93DF93EC019A018B
:104BD0008881998180709E738050904219F02DEEEB
:104BE00030E01CC08A819B8177FF06C0680F791F67
:104BF00077FF02C060E070E0AB01861797070CF406
:104C0000AC01B9018C819D810E94812D9C01892B71
:104C100029F48A819B8101969B838A83C901DF9154
:104C2000CF9108958F929F92AF92BF92CF92DF92D1
:104C3000EF92FF920F931F93CF93DF93CDB7DEB721
:104C400022970FB6F894DEBF0FBECDBF7C015B018B
:104C5000690157FF05C0FC0182819381480F591FEC
:104C6000B7FE05C0F70182819381A80EB91EF70136
:104C70008081918180709E738050904209F08FC036
:104C8000F70122813381241B350B2A0D3B1DF601D0
:104C90008081918180709E73892F992786958430B9
:104CA000910571F0409709F07AC0F60109C0B5018D
:104CB000C7010E9455259C01892B09F072C006C0CE
:104CC00002811381020F131F20E030E0F70182817F
:104CD0009381081719075CF309C0A601B501C70144
:104CE0000E94E4259C01892B09F05BC0F7018281B9
:104CF0009381801791078CF3F601808191818070F8
:104D00009E73892F992786958430910519F500E0C7
:104D100010E04E010894811C911C15C0A401B8013B
:104D2000C6010E940E329C01892BD9F549815A8116
:104D3000B8016A0D7B1DC7010E94A6259C01892B25
:104D400081F50F5F1F4FF6018281938108171907C4
:104D50002CF327C0409729F500E010E04E0108949D
:104D6000811C911C15C0A401B801C6010E946624D3
:104D70009C01892BB1F449815A81B8016A0D7B1DD0
:104D8000C7010E94A6259C01892B59F40F5F1F4F74
:104D9000F60182819381081719072CF302C02DEECA
:104DA00030E0C90122960FB6F894DEBF0FBECDBF2A
:104DB000DF91CF911F910F91FF90EF90DF90CF90F7
:104DC000BF90AF909F908F900895CF93DF93EC01A9
:104DD0008881998180709E738050904219F02DEEE9
:104DE00030E00CC08C819D810E94162E9C01892B85
:104DF00029F48A819B8101969B838A83C901DF9173
:104E0000CF9108954F925F926F927F928F929F926F
:104E1000AF92BF92CF92DF92EF92FF920F931F93C8
:104E2000CF93DF93CDB7DEB722970FB6F894DEBFEE
:104E30000FBECDBF5C017B016A0129013801232B24
:104E400021F47EEE872E912C3DC057FF05C0FC015A
:104E500082819381C80ED91EF7FE05C0F5018281BB
:104E60009381E80EF91EF5018081918180709E7317
:104E70008050904221F06DEE862E912C23C0C3010C
:104E80000E94C9254C01892BE9F487017E01089411
:104E9000E11CF11C14C0A701B801C5010E946624E1
:104EA000009749F469817A81F301808191810E94A0
:104EB000E526009711F04C0105C0040D151D0C15D9
:104EC0001D0548F3C40122960FB6F894DEBF0FBE4D
:104ED000CDBFDF91CF911F910F91FF90EF90DF90A9
:104EE000CF90BF90AF909F908F907F906F905F908A
:104EF0004F9008954F925F926F927F928F929F9200
:104F0000AF92BF92CF92DF92EF92FF920F931F93D7
:104F1000CF93DF93CDB7DEB722970FB6F894DEBFFD
:104F20000FBECDBF5C018B014A011A821982FC01C0
:104F30008081918180709E738050904279F5F50157
:104F400062807380CA010E94C9257C01892B49F5C2
:104F500068012E010894411C511C1AC0A201B8011D
:104F6000C5010E946624009749F469817A81F401A1
:104F7000808191810E94E526009711F07C0111C08B
:104F80000F5F1F4F061517054CF30894C108D10891
:104F90001C141D0434F400E010E0F4CFEDEEEE2E0E
:104FA000F12CC70122960FB6F894DEBF0FBECDBF1D
:104FB000DF91CF911F910F91FF90EF90DF90CF90F5
:104FC000BF90AF909F908F907F906F905F904F9029
:104FD0000895AB0161E070E00E947A270895CF92B6
:104FE000DF92EF92FF920F931F93CF93DF93CDB792
:104FF000DEB722970FB6F894DEBF0FBECDBF7C019F
:105000008B01892B21F4CB010E94E32F11C07A83FD
:1050100069836E010894C11CD11CB601C7010E94AE
:10502000623A8823D1F789819A81801B910B01977D
:1050300022960FB6F894DEBF0FBECDBFDF91CF91A1
:105040001F910F91FF90EF90DF90CF900895CF9236
:10505000DF92EF92FF920F931F936C017B010E94EE
:10506000623A082FB701C6010E94623A9927982F29
:1050700088271127802B912B1F910F91FF90EF9084
:10508000DF90CF900895AF92BF92CF92DF92EF92D0
:10509000FF920F931F935C016B010E9427287C01F4
:1050A000B601C5010E942728AA27BB27DC01992742
:1050B0008827002711278E299F29A02BB12BBC01FF
:1050C000CD011F910F91FF90EF90DF90CF90BF9097
:1050D000AF900895CF92DF92EF92FF920F931F93BC
:1050E000CF93DF936C018B017A01E901892B49F59C
:1050F000DA016D917C91A901F801808191810E9472
:10510000CC2FD7018D919C9111978C0F9D1F8D9362
:105110009C93F801808191818C0F9D1F91838083E6
:1051200012C0B701C6010E94623AD801ED91FC910C
:10513000119780838D919C91119701968D939C93EB
:105140002197209771F7DF91CF911F910F91FF90D9
:10515000EF90DF90CF900895EF92FF920F931F93FF
:10516000CF93DF93CDB7DEB724970FB6F894DEBFA9
:105170000FBECDBF8C017B01DC018D919C918070B5
:105180009E7380509A4019F02DEE30E025C0BE018C
:105190006F5F7F4F8AE090E00E942F099C01892B6E
:1051A000D9F4E981FA81D701ED93FC938081918153
:1051B000917C9C609183808313830283CE0103964C
:1051C0000E94FA3E9C01D701ED91FC918B819C815C
:1051D0009583848397838683C90124960FB6F894B8
:1051E000DEBF0FBECDBFDF91CF911F910F91FF901A
:1051F000EF900895CF92DF92EF92FF920F931F935B
:10520000CF93DF93CDB7DEB724970FB6F894DEBF08
:105210000FBECDBF7C016B011A821982FC01808117
:10522000918180709E738050964019F08BEE90E0D3
:105230002EC00091740F1091750F03C0F801078103
:1052400010850115110519F486EE90E020C0F801D3
:1052500062817381C7010E94F3308F3F79F306C0EA
:10526000B6018B819C810E94AC2811C0F801858118
:1052700096819A8389838481AE014D5F5F4FBE0121
:105280006F5F7F4F99270E94542B009749F3249614
:105290000FB6F894DEBF0FBECDBFDF91CF911F9147
:1052A0000F91FF90EF90DF90CF900895FC018081E7
:1052B000918180709E73892F9927869584309105FE
:1052C000E1F08530910530F48130910559F0039774
:1052D00031F413C08031910581F0419771F020E0E5
:1052E00030E013C020E030E082819381A481B58159
:1052F0000097A105B10549F406C020E030E08281A5
:105300009381892B11F421E030E0C90108951F93A6
:10531000CF93DF93EC01162F892B59F486E092E0AE
:105320009F938F930E94234380E090E00F900F9013
:10533000AAC08881998180709E73892F992786954C
:105340008F30910580F48530910508F048C0813098
:10535000910569F181309105D0F08330910559F1C3
:10536000049791F434C086319105C9F187319105D4
:1053700030F48031910539F1419731F420C0893101
:10538000910549F14A9759F18DEE90E07CC0662372
:1053900009F477C08EE40E949C3A8FE60E949C3A02
:1053A0008EE60E949C3A85E60E949C3A6CC0CE0133
:1053B0000E94CD4168C0CE010E948A3064C0CE01F7
:1053C0000E94D93C60C0CE010E9486245CC0CE0100
:1053D0000E94333258C0CE010E94203054C01123A5
:1053E00031F087E20E949C3A009709F04CC08CE3B0
:1053F0000E949C3A8FE60E949C3A82E60E949C3A68
:105400008AE60E949C3A80E20E949C3A84E70E94CD
:105410009C3A89E70E949C3A80E70E949C3A85E684
:105420000E949C3A80E20E949C3A80E30E949C3A4F
:1054300088E70E949C3A88819981892F99278695CF
:105440008F710E94814180E20E949C3A80E40E9418
:105450009C3A80E20E949C3A80E30E949C3A88E752
:105460000E949C3ABE01882777FD8095982F0E9464
:105470009A418EE30E949C3A112319F087E20E9420
:105480009C3A80E090E0DF91CF911F910895CF93F7
:10549000DF93DC01FB0186179707E9F12D913C9121
:1054A000119720703E738081918180709E73A90155
:1054B000452F552746958217930781F543305105AF
:1054C00020F44130510558F426C044305105D9F03C
:1054D0004430510598F04031510501F514C0ED01FB
:1054E0002A813B814C815D8182819381A481B58138
:1054F000281739074A075B0771F010C0BF01CD01BB
:105500000E94F33004C0BF01CD010E945D2F992796
:1055100087FD909505C080E090E002C08FEF9FEF7F
:10552000DF91CF910895AF92BF92CF92DF92EF9229
:10553000FF920F931F93CF93DF93CDB7DEB72297E0
:105540000FB6F894DEBF0FBECDBF8C016B01FC011E
:105550008081918180709E73892F992786958430F0
:105560009105A9F08530910520F4039709F086C0D4
:1055700034C08031910521F0419709F07FC071C09E
:10558000EE24FF245E010894A11CB11C63C0EE242C
:10559000FF245E010894A11CB11C18C0A501B7012D
:1055A000C8010E940E32892B31F0A501B701C80154
:1055B0000E940E3268C069817A81C6010E94472A22
:1055C000882309F45EC00894E11CF11CF801828173
:1055D0009381E816F90614F34EC0F601808191819B
:1055E00080709E738050964009F048C0F601828119
:1055F0009381009709F445C0019719F08EEE90E071
:1056000042C0F6016681F8014281538120E030E01A
:1056100006C0868131966817A1F12F5F3F4F24178E
:105620003507B9F728C0A501B701C8010E94662453
:10563000892B31F0A501B701C8010E94662423C05F
:1056400069817A81C6010E94472A8823D1F0089493
:10565000E11CF11CF80182819381E816F9061CF324
:105660000AC0AE014F5F5F4FB601C8010E944F3DB7
:10567000883E910541F48FEF90E005C08DEE90E0FB
:1056800002C080E090E022960FB6F894DEBF0FBE15
:10569000CDBFDF91CF911F910F91FF90EF90DF90E1
:1056A000CF90BF90AF900895EF92FF920F931F930A
:1056B000CF93DF937C01EB018A010E94623A992724
:1056C0008F7190708330910529F18430910528F411
:1056D000009771F0019749F415C08A30910569F17E
:1056E0008B30910521F10497E1F08CEE90E02AC017
:1056F0008091680F9091690FF8019183808380E019
:1057000090E020C0BE01C7010E944328A8010E946A
:10571000224218C0980141E0BE01C7010E940F312A
:1057200011C0A801BE01C7010E9495330BC0A8019A
:10573000BE01C7010E94043C05C0A801BE01C7010B
:105740000E94523CDF91CF911F910F91FF90EF90FB
:1057500008952091640F3091650F280F391F15C0EF
:1057600080915C0F90915D0FA0915E0FB0915F0FE3
:105770000196A11DB11D80935C0F90935D0FA093C6
:105780005E0FB0935F0F285E334083E0283E3807FA
:1057900038F73093650F2093640F80E090E0089510
:1057A0000F931F93CF93DF93CDB7DEB726970FB636
:1057B000F894DEBF0FBECDBF9E838D839E012D5F0B
:1057C0003F4F40E0BE016B5F7F4F80E090E00E9462
:1057D0000F318C01892B01F5BE016F5F7F4F8B81EB
:1057E0009C810E94FA288C01892BB1F489819A81CD
:1057F0000E9499038C01892B79F489819A810E94F6
:105800000D0B8C01892B41F481E00E94C00B8C01AF
:10581000009711F00E94B93AC80126960FB6F89485
:10582000DEBF0FBECDBFDF91CF911F910F910895C5
:10583000CF92DF92EF92FF920F931F93CF93DF935C
:10584000CDB7DEB722970FB6F894DEBF0FBECDBF3F
:105850006C017B010E945B3A0097F9F40E94640995
:105860000097D9F40E94D2030097B9F48CEB91E031
:105870009A8389838E010F5F1F4FB80181E090E00A
:105880000E94E440009749F4E114F10431F0FA82F7
:10589000E982B801C6010E94E44022960FB6F8944E
:1058A000DEBF0FBECDBFDF91CF911F910F91FF9053
:1058B000EF90DF90CF9008950F931F93CF93DF93D6
:1058C0009B018A01FC01C281D381CB0168E070E0B9
:1058D0000E94B54605C00A88DB89C02D6150704022
:1058E00016161706C4F3C90168E070E00E94B546B9
:1058F000FC013196EE0FFF1FEC0FFD1F808191819F
:10590000F8019183808380E090E0DF91CF911F9137
:105910000F9108950F931F93CF93DF938B019A01FB
:10592000FC01C281D381CA0168E070E00E94B546E3
:1059300005C00A88DB89C02D615070401616170615
:10594000C4F3C90168E070E00E94B546FC013196DD
:10595000EE0FFF1FEC0FFD1F1183008380E090E02E
:10596000DF91CF911F910F910895EF92FF920F93C6
:105970001F93CF93DF938C01FC01C281D3819B01E4
:1059800043E0369527954A95E1F705C00A88DB89FB
:10599000C02D2150304012161306C4F37B011DC0E8
:1059A000C70168E070E00E94B5468730910541F478
:1059B000EA89FB8982819381998B888BEF010AC0E8
:1059C000FC013196EE0FFF1FEC0FFD1F82819381CA
:1059D000918380830894E11CF11CF80126813781B2
:1059E00021503040E216F306DCF237832683C901EA
:1059F00087709070892B51F5C281D381C9010197BD
:105A000068E070E00E94B54620E030E003C0EC01A1
:105A10002F5F3F4F8A899B8926173707C4F3892B4D
:105A200079F4CE010E94F305892B21F0CE010E946A
:105A3000F3051BC0F801158214821382128213C071
:105A4000F801D583C4831B8A1A8A0DC0C90168E096
:105A500070E00E94B546FC013196EE0FFF1FEC0F7F
:105A6000FD1F1182108280E090E0DF91CF911F91A5
:105A70000F91FF90EF900895EF92FF920F931F9375
:105A8000CF93DF93EC01EA81FB810DC0028913897A
:105A90007F01CF010E94F305F801892B21F0C70196
:105AA0000E94F3050AC0309789F71B821A821D8273
:105AB0001C821F821E8280E090E0DF91CF911F91B7
:105AC0000F91FF90EF900895CF93DF93EC01BC010D
:105AD00088E090E00E942F099C01892B71F4E881F5
