:100000000C9446030C9468030C9468030C946803E6
:100010000C9468030C9468030C9468030C946803B4
:100020000C9468030C9468030C9468030C946803A4
:100030000C9468030C9468030C9468030C94680394
:100040000C9468030C9468030C9468030C94680384
:100050000C9468030C9468030C9468030C94680374
:10006000D406D406D4060307DF061B073F075E0746
:100070003F075E077A077A07D406EE075E07870810
:10008000030710077D07C607D107EE07EE074208F2
:10009000F907570870089B0CAD0CE10CE61C300DFD
:1000A0000E260E260E263D0C960DB10DC80D0E2601
:1000B0000E26FB0D0E260E262C0E630EC50E8A0F85
:1000C00007108310E31043118A0F0E268A0F0E26A5
:1000D000D11115126B12C3120E260E260E260E26F5
:1000E0000E260E2639136A13B513FF130E260E269D
:1000F0000E260E260E260E2667149514E3142D15D3
:100100000E268310E310C50E8A0F07109615FF15F3
:100110005816B81618177817D817630E9C0E0E26A7
:10012000401840185D180E260E265816B8161817D7
:100130007817D81767180E26BF18D3182E190E2651
:100140000E2654190E267E19D519291A6A1AE61A8E
:100150000E262A1BB91B381C8C1CCD1C8F1DC51DDF
:10016000441E8E1ECF1EEF1E691F7A20FD200E2614
:100170004A216D219721CC21FC210E26F3220E2647
:100180000E26CC214B230E260E260E26AD23E02371
:100190000E2614240E260E263324BE24DE246125CA
:1001A0000AAF0000020004050307005F5F646F638D
:1001B0005F5F030300617672030400696E69740374
:1001C00004006D61696E03060073616D706C6504F7
:1001D000050001FFFFFFFF000B00FFFF0A440000C6
:1001E00002000404030400696E697403030061766D
:1001F00072030500706F7274410304006D61696ED3
:1002000004020001AA0000007400008300000174D1
:1002100001006902006401008301000164000053D1
:100220006400005A00006401006402006B01005A7F
:1002300001006403008400005A020064040084008A
:10024000005A0300650300830000016402005300AC
:100250000A720200030004130308005F5F6E616D01
:10026000655F5F03030061627303030063687203E9
:1002700004006576616C030700676C6F62616C73E4
:1002800003020069640303006C656E0306006C6F73
:1002900063616C730303006D61700303006F72642C
:1002A000030300706F7703050072616E67650303D7
:1002B0000073756D0304006C697374030400747932
:1002C0007065030200436F0308007365745F7479FF
:1002D0007065030900457863657074696F6E030487
:1002E000005F5F6269041503060050796D697465EB
:1002F0000B0100000B0101000B0302000B000300C7
:100300000B0104000B0105000B0006000A59000256
:10031000040504010303006D617004030001000083
:10032000000001010000006700007D020064010080
:100330007D0300782B007C0100445D23007D0400D8
:100340007C00007C04008301006701007C02007CCB
:100350000300297C0300640200377D030071130051
:10036000577C0200530B0107000B0208000B030926
:10037000000B010A000B010B000B010C000B010D1F
:10038000000B020E00030900457863657074696F05
:100390006E0A810000010004040308005F5F6E61C3
:1003A0006D655F5F030A005F5F6D6F64756C655F0D
:1003B0005F0308005F5F696E69745F5F0309004552
:1003C0007863657074696F6E04010A370001030178
:1003D00004020308007365745F7479706503080094
:1003E0005F5F696E69745F5F040200010E000000C8
:1003F0007400007C000064010083020001640000BE
:10040000536500005A01006400008400005A020095
:1004100052530004006400005A000064010084008C
:10042000005A01006402008400005A0200640300C4
:100430008400005A03006404008400005A0400642D
:1004400005008400005A05006406008400005A0676
:10045000006407008400005A07006408008400005C
:100460005A08006409008400005A0900640A0084E4
:1004700000005A0A00640B008400005A0B00640C50
:10048000008400005A0C00640D008400005A0D0026
:10049000640E008400005A0E00640F008400005AAD
:1004A0000F006410008400005A10006411006414EE
:1004B00000641200840000830000595A1100641384
:1004C00000530A1F01000100040A0306006D617851
:1004D000696E7403040065786974030400676574C9
:1004E0006203040068656170030400707574620340
:1004F00004007075747303040074696D65030E0065
:100500007072696E745F766D5F73746174650310E9
:1005100000726567697374657243616C6C626163D4
:100520006B030300737973040A01FFFFFF7F0B0164
:100530000F000B0010000B0011000B0112000A4409
:1005400000010402040303040070757462030300D5
:100550006F726403040070757473040100781E00E8
:100560007C0000445D16007D0100740000740100F1
:100570007C010083010083010001710700576400C2
:1005800000530B0013000B0014000B021500006455
:1005900000005A00006401008400005A0100640257
:1005A000008400005A02006403008400005A030023
:1005B0006404008400005A04006405008400005AAA
:1005C00005006406008400005A06006407008400E9
:1005D000005A07006408008400005A0800640900FB
:1005E000530A6B0000010004050305007370617776
:1005F0006E030400776169740304006C6F636B031E
:100600000600756E6C6F636B03060074687265613B
:100610006404050B0116000B0017000B0018000BFB
:10062000001900006400008400005A00006401000A
:100630008400005A01006402008400005A02006431
:1006400003008400005A0300640400530A3B0000C6
:10065000010004030307005F5F646F635F5F0305CE
:1006600000706F7274410303006176720403000B23
:10067000011A00006400005A0000640100840000B8
:100680005A01006402005300256C690011241FBE4A
:10069000CFEFDFE0DEBFCDBF10E0A0E6B0E0E0EFDF
:1006A000F2E90FEF03950BBF04C0D8950D92319678
:1006B000C8F3A63EB107C9F715E0A6EEB0E001C049
:1006C0001D92A433B107E1F70E946A030C947749A5
:1006D0000C940000CFEFDFE0DEBFCDBF60EA71E039
:1006E00081E00E94A72D882321F480E690E00E94FB
:1006F000E82D99270C9477498CEE90E008958FEFC0
:100700008ABB8091FA049091FB0490930F0580932B
:100710000E0580E090E00895CF93DF93CDB7DEB76C
:1007200026970FB6F894DEBF0FBECDBF82E790E0EC
:100730009E838D8344E350E060E08AEF94E00E9462
:10074000FA3185E080932305BE016F5F7F4F86E01D
:1007500090E00E94B809DC01892B09F0BAC0E98158
:10076000FA81FC83EB8380819181917C92609183FB
:1007700080831282138214821582F093FD04E09329
:10078000FC04BE016F5F7F4F86E090E00E94B809D5
:10079000DC01892B09F09DC0E981FA81FC83EB83A0
:1007A00080819181917C92609183808381E090E04F
:1007B000A0E0B0E082839383A483B583F093FF0429
:1007C000E093FE04BE016F5F7F4F86E090E00E94E1
:1007D000B809DC01892B09F07CC0E981FA81FC832E
:1007E000EB8380819181917C9260918380838FEFF4
:1007F0009FEFAFEFBFEF82839383A483B583F09322
:100800000105E0930005BE016F5F7F4F82E090E03D
:100810000E94B809DC01892B09F05BC0E981FA81EB
:10082000FC83EB8380819181917C91838083F09321
:10083000FB04E093FA049E012D5F3F4F40E0BE01B0
:100840006B5F7F4FCD010E94C0328B819C81909362
:10085000030580930205109205051092040510927D
:10086000070510920605809108059091090597FFEC
:1008700003C08070907C02C080709E7F86609093E1
:100880000905809308058091080590910905917CE0
:100890009063909309058093080510921105CE018D
:1008A00003960E94B126DC01892B99F48B819C81EF
:1008B0009093280580932705CE0103960E941A3F46
:1008C000DC01892B31F48B819C8190932D058093E1
:1008D0002C05CD0126960FB6F894DEBF0FBECDBF16
:1008E000DF91CF910895CF93DF93CDB7DEB72897EF
:1008F0000FB6F894DEBF0FBECDBFA0E0B0E0BE8360
:10090000AD8387E790E098878F83BA83A9839E01A0
:100910002F5F3F4F40E060E770E0CD010E94C032A2
:10092000DC01892BC1F5BE016D5F7F4F89819A8102
:100930000E94C12ADC01892B71F58B819C810E9468
:100940004D0A81E00E94190CDC01892B21F5EB8115
:10095000FC818481958190930505809304059E0117
:100960002B5F3F4F40E0BE01695F7F4FCD010E948A
:10097000C032DC01892B79F44091FA045091FB04D8
:100980006D817E8180910405909105050E945E3FF6
:10099000DC01892B11F0CD0104C08B819C810E9468
:1009A000710628960FB6F894DEBF0FBECDBFDF915B
:1009B000CF910895EF92FF920F931F93CF93DF9300
:1009C000CDB7DEB722970FB6F894DEBF0FBECDBF0E
:1009D0007C0100E010E01A83098380910405909166
:1009E0000505892B11F40E9473049E012F5F3F4F70
:1009F00040E060E770E0C8010E94C032009759F4FF
:100A0000409104055091050569817A81F70184813F
:100A100095810E945E3F22960FB6F894DEBF0FBE0E
:100A2000CDBFDF91CF911F910F91FF90EF9008956F
:100A30000895CF93DF93FC01A481B581109729F02D
:100A400082819381ED019B838A830280F381E02D73
:100A5000309729F4B093E704A093E60402C0B5836D
:100A6000A48380E090E0DF91CF910895CF93DF934E
:100A7000DC018091E6049091E704009751F4B09373
:100A8000E704A093E604FD01958384839383828326
:100A90004BC0EC018D919C91119797FF02C0AC0166
:100AA00002C0AC015170440F551F440F551F01C0C7
:100AB000EC012881398137FF02C0C90102C0C90198
:100AC0009170880F991F880F991F8417950720F43C
:100AD0008C819D81009761F737FD01C03170220F35
:100AE000331F220F331F2417350750F48C819D814B
:100AF000FD0195838483BD83AC83D383C28314C0FB
:100B0000FD01D583C4838A819B8193838283EA819B
:100B1000FB81309729F4B093E704A093E60402C068
:100B2000B583A483BB83AA8380E090E0DF91CF915B
:100B300008958091E6009091E7008070917C916823
:100B40009093E7008093E6001092EB001092EA0089
:100B50001092E9001092E80086EE90E09093E7048E
:100B60008093E60480E094E09093E9048093E804A5
:100B70001092EA0481E08093EB040E940F3480E03D
:100B800090E00895EF92FF920F931F93CF93DF931E
:100B90008C017B01C091E604D091E70403C00C8076
:100BA000DD81C02D209761F08881998199230CF017
:100BB0009170880F991F880F991F8017910778F3FC
:100BC000209731F4F701D183C08389EE90E082C091
:100BD000CE010E941905009709F07CC02881398157
:100BE00037FF02C0C90102C0C9019170880F991F67
:100BF000880F991F801B910B069708F43CC0FE01DB
:100C0000E00FF11F2081318130682070307C31830A
:100C100020838881998199230CF09170880F991F06
:100C2000880F991F801B910B9695879596958795B0
:100C3000822B932B91838083CF010E9436050097EE
:100C400009F048C08881998197FF03C08070907C2B
:100C500002C080709E7F99838883888199811695D0
:100C600007951695079580709E771170802B912BB4
:100C70009983888303C03174398328838091100558
:100C80002091EA04882329F088819981222329F080
:100C900006C088819981222311F0906401C09F7B56
:100CA000998388832091E8043091E90488819981AF
:100CB00099230CF09170880F991F880F991F281B9A
:100CC000390B3093E9042093E804F701D183C08302
:100CD00080E090E0DF91CF911F910F91FF90EF9016
:100CE0000895CF93DF93EC01888199819068917C7E
:100CF00099838883CE010E943605AC01892B99F433
:100D00002091E8043091E9048881998199230CF0BD
:100D10009170880F991F880F991F820F931F9093CE
:100D2000E9048093E804CA01DF91CF910895FC01A2
:100D30008091E8049091E9049183808380E090E0C1
:100D40000895EF92FF920F931F93CF93DF937C014F
:100D500060E070E0009709F4DAC1FC014081518144
:100D6000CA0184E0989F812D992711248170907089
:100D7000C091EA042C2F33278217930709F4C7C1C7
:100D8000CA0180709E73892F99278695AA27BB2751
:100D9000FC014B9708F0BBC1E05DFF4FEE0FFF1F5A
:100DA0000590F491E02D0994CC2319F0CA019064C8
:100DB00002C0CA019F7BF70191838083A8C1F7011C
:100DC00002811381CC2319F0CA01906402C0CA01C8
:100DD0009F7BF701918380830150104017FD97C1DD
:100DE000E801C00FD11FCE0DDF1D249688819981A7
:100DF00022970E94A106BC01892B09F088C10150ED
:100E00001040A2F784C1CC2319F0CA01906402C03B
:100E1000CA019F7BF701918380838481958174C18E
:100E2000CC2319F0CA01906402C0CA019F7BF7016C
:100E3000918380834EC1CC2319F0CA01906402C013
:100E4000CA019F7BF70191838083858196810E94EF
:100E5000A106BC01892B09F05AC1F7018781908551
:100E60000E94A106BC01892B09F051C1F7018281C2
:100E7000882309F04CC183819481029745C1CC231A
:100E800019F0CA01906402C0CA019F7BF7019183E7
:100E90008083828193810E94A106BC01892B09F085
:100EA00036C1F701848195810E94A106BC01892B7E
:100EB00009F02DC1F7018085918526C1CC2319F059
:100EC000CA01906402C0CA019F7BF70191838083AD
:100ED000848195810E94A106BC01892B09F017C16C
:100EE000F701828193810E94A106BC01892B09F040
:100EF0000EC1F2C08CEE90E00BC1CC2319F0CA01F8
:100F0000906402C0CA019F7BF70191838083828134
:100F100093810E94A106BC01892B09F0F8C0F7015A
:100F2000848195810E94A106BC01892B09F0EFC044
:100F3000F701838594850E94A106BC01892B09F0E5
:100F4000E6C0F701858596850E94A106BC01892B24
:100F500009F0DDC0F701878590890E94A106BC01D8
:100F6000892B09F0D4C0E7016496F7018189928941
:100F7000C817D90708F0CBC0888199810E94A106C3
:100F8000BC01892B09F0C3C02296EFCFCC2319F006
:100F9000CA01906402C0CA019F7BF70191838083DC
:100FA00083C0CC2319F0CA01906402C0CA019F7BA0
:100FB000E7018993999300E010E0899199910E944B
:100FC000A106BC01892B09F0A2C00F5F1F4F08309A
:100FD00011059CF3F7018289938996C0CC2319F0FF
:100FE000CA01906402C0CA019F7BF701918380838C
:100FF00089C0CC2319F0CA01906402C0CA019F7B4A
:10100000F7019183808380911005882309F47FC0C4
:1010100080910A0590910B050E94A106BC01892BC5
:1010200009F075C080910C0590910D050E94A106F4
:10103000BC01892B09F06BC080910E0590910F05C2
:101040000E94A106BC01009709F061C08C0180914B
:1010500012059927681779070CF059C0CAEFD4E038
:10106000898D9A8D0E94A106BC01892B09F04FC081
:101070000F5F1F4F229680911205992708171907B5
:101080007CF345C0CC2319F0CA01906402C0CA01A8
:101090009F7BF70191838083828193810E94A106C7
:1010A000BC01892BA1F5F701878190852DC0CC2348
:1010B00019F0CA01906402C0CA019F7BF7019183B5
:1010C0008083828193810E94A106BC01892BF9F45F
:1010D000F7018481958107CFF7018681978114C03C
:1010E000CC2319F0CA01906402C0CA019F7BF701AA
:1010F00091838083848195810E94A106BC01892B04
:1011000031F4F701828193810E94A106BC01CB01D9
:10111000DF91CF911F910F91FF90EF900895CF92A3
:10112000DF92EF92FF920F931F93CF93DF93809103
:101130001005882351F0809111058F5F8093110570
:1011400080911105823008F008C18091EA0491E095
:1011500089278093EA048091FA049091FB040E940D
:10116000A106009709F042C08091FC049091FD0413
:101170000E94A1060097D1F58091FE049091FF0492
:101180000E94A106009791F58091000590910105BC
:101190000E94A106009751F58091020590910305E8
:1011A0000E94A106009711F5809106059091070510
:1011B0000E94A1060097D1F4809104059091050545
:1011C0000E94A106009791F488E095E00E94A10694
:1011D000009761F480912705909128050E94A1064F
:1011E00080912C0590912D050E94A106009709F091
:1011F000B6C006EE10E084E0063E180708F0ADC069
:10120000F80120813181C90180709078892B91F596
:10121000A90144E0549F412D55271124417050707D
:101220008091EA0499274817590721F5F4E0063E12
:101230001F0700F537FF02C0C90102C0C901917044
:10124000880F991F880F991F800F911F8C01FC0137
:1012500020813181C90180709078892B59F4C901AE
:1012600084E0989F812D99271124817090708417B4
:101270009507E1F284E0063E180708F06EC0EE2400
:10128000FF246701E80128813981C90180709078C5
:10129000892B69F424E0329F212D332711242170FA
:1012A00030708091EA04992728173907A1F1288125
:1012B000398137FF02C0C90102C0C9019170880F8E
:1012C000991F880F991FE80EF91EC9018070907848
:1012D000892B31F0CE010E941905009761F03FC0C3
:1012E000C901917C906899838883880F991F880F22
:1012F000991FC80ED91E8881998199230CF091708D
:10130000880F991F880F991F8C0F9D1FEC01865E17
:10131000944008F4B8CF8091E8049091E9048C0DD2
:101320009D1D9093E9048093E804F80180819181E8
:1013300090688070907CF694E794F694E7948E29F8
:101340009F2991838083C8010E943605009739F454
:101350008E01C65ED44008F453CF80E090E0DF9168
:10136000CF911F910F91FF90EF90DF90CF90089554
:101370000F931F93CF93DF938B0127E08D3F92074D
:1013800018F089EE90E01FC08630910510F486E0D9
:1013900090E0EC012396CC7FB801CE010E94C205FB
:1013A0009C01893E910571F48091EB04813051F4E8
:1013B0000E948F089C01892B29F4B801CE010E945C
:1013C000C2059C01C901DF91CF911F910F91089532
:1013D0008093EB0480E090E00895CF93DF93CDB746
:1013E000DEB722970FB6F894DEBF0FBECDBF20E068
:1013F00030E080912B0581FF07C0809129059091F5
:101400002A05892B09F03FC0E0912705F0912805B6
:1014100082819381009729F490932A05809329056E
:1014200029C08091EC048F5F8093EC04282F332730
:10143000E0912705F09128058281938128173907CB
:1014400014F01092EC048091EC049927AE014F5FE8
:101450005F4FBC0180912705909128050E9463266B
:101460009C0189819A8190932A05809329052115F1
:10147000310549F480912B058E7F80932B05809157
:101480002B0580932B05C90122960FB6F894DEBF79
:101490000FBECDBFDF91CF910895CF93DF93CDB72E
:1014A000DEB724970FB6F894DEBF0FBECDBFBE01E6
:1014B0006F5F7F4F0E945741009789F4BE016D5FB7
:1014C0007F4F89819A810E941634009741F46B8185
:1014D0007C8180912705909128050E9446262496BC
:1014E0000FB6F894DEBF0FBECDBFDF91CF91089548
:1014F000CF93DF93CDB7DEB724970FB6F894DEBF56
:101500000FBECDBFDC01CB01AE014F5F5F4FBC0111
:10151000CD010E94CC43009789F4AE014D5F5F4F2F
:1015200069817A8180912C0590912D050E94D83F88
:10153000009721F48B819C810E944D0A24960FB65E
:10154000F894DEBF0FBECDBFDF91CF910895EF922B
:10155000FF920F931F93CF93DF93CDB7DEB7229700
:101560000FB6F894DEBF0FBECDBF182F062F60E078
:1015700070E07A836983282F332727FD3095C901CE
:101580008070892B09F0B0C0E0912905F0912A05FF
:101590000280F381E02D0188F289E02DC901820FDC
:1015A000931FE81BF90B329740815181FA0120818A
:1015B000318120703E73232F332726952730310544
:1015C00021F5E0912905F0912A05A281B381FD0161
:1015D000818992890297928B818BBE016F5F7F4FC9
:1015E000FC01808191810E945D3DBC01892B09F045
:1015F000F4C0E0912905F0912A05A281B381FD0193
:101600002189328989819A81E1C02A313105B9F471
:10161000FA01E480F580E0912905F0912A05028025
:10162000F381E02D0188F289E02DE81BF90B329758
:10163000F182E0821F5FFA014281538101C07B0188
:10164000FA01A281B381ED91FC91E070FE73EF2F5E
:10165000FF27E695E530F10509F041C0BE016F5F57
:101660007F4FCA010E945741BC01892B09F0B5C0C8
:10167000115017FD1FC029813A81A12FBB27A7FD5B
:10168000B095AA0FBB1FA20FB31FE0912905F091DF
:101690002A0582819381FC01418952894250504040
:1016A000528B418BFA0180819181FD01958B848B56
:1016B00011501AF7E114F10429F0E981FA81F58A51
:1016C000E48A90C0E0912905F0912A050280F38117
:1016D000E02D818992890297928B818B83C03C9700
:1016E00009F07DC019301CF08CEE90E095C010938D
:1016F0001205115017FD1CC0A12FBB27A7FDB095E7
:10170000AA0FBB1FA650BB4FE0912905F0912A05F7
:1017100082819381FC012189328922503040328BB1
:10172000218BF90180819181FD01928F818FE1CF21
:10173000E0912905F0912A050280F381E02D81894D
:1017400092890297928B818BFA01A281B381BA832D
:10175000A983FD01138181E080931005E12FFF270C
:10176000E7FDF09517FD05C0EE0FFF1FE356FF4F95
:101770000CC08EEF9FEFE89F9001E99F300DF89F1E
:10178000300D1124F901E959FF4F809129059091FD
:101790002A050190F081E02D02960995BC01109276
:1017A0001005109211058D3F910519F460E070E06D
:1017B00014C0E0912905F0912A05A281B381FD01B1
:1017C0002189328980910E0590910F05F90181934D
:1017D00091939F01FD01328B218BCB011DC08DEEBA
:1017E00090E01AC0A981BA81E0912905F0912A05FB
:1017F00082819381FD0193838283017083898E7F2F
:10180000802B838BE0912905F0912A0589819A81AB
:101810009383828380E090E022960FB6F894DEBF37
:101820000FBECDBFDF91CF911F910F91FF90EF9031
:101830000895BF92CF92DF92EF92FF920F931F9382
:10184000CF93DF93CDB7DEB72C970FB6F894DEBFFA
:101850000FBECDBFB82EEE24FF24FA86E986FA82A9
:10186000E982FC82EB82FE82ED82F886EF820C94A4
:101870002D266DEE70E00C9435268091290590910F
:101880002A05892B31F4BB2011F00C9434260C94DA
:101890002D268091ED048F5F60E30E94F1489093C4
:1018A000ED04992391F4E0912705F09128058281B8
:1018B0009381029754F080912B058E7F80932B05A6
:1018C00080912B05816080932B0580912B0580FFF3
:1018D0000BC08CE790E00E9463450E94ED097C01FB
:1018E000892B11F00C943426E0912905F0912A05FA
:1018F000828193810796E0912905F0912A05028063
:10190000F381E02D2681BC01822F99270E94AC3CF7
:10191000182F9927AA27BB27FC013197E538F10535
:1019200010F00C940E26E55BFF4FEE0FFF1F0590A5
:10193000F491E02D0994E0912905F0912A05A28106
:10194000B381FD01818992890297928B818BDC01A1
:101950008D919C919A87898790CFE0912905F0918C
:101960002A050280F381E02D0188F289E02D32976B
:10197000808191819A878987E0912905F0912A05D4
:101980000280F381E02DA189B2891297E0912905A7
:10199000F0912A050280F381E02D0188F289E02D83
:1019A0003497808191818D939C93E0912905F091EA
:1019B0002A050280F381E02D0188F289E02D349719
:1019C0004CC0E0912905F0912A050280F381E02DB9
:1019D0000188F289E02D3297808191819A878987E9
:1019E000E0912905F0912A050280F381E02DA1897B
:1019F000B2891297E0912905F0912A050280F381BE
:101A0000E02D0188F289E02D3497808191818D93BA
:101A10009C93E0912905F0912A050280F381E02D45
:101A2000A189B2891497E0912905F0912A050280D5
:101A3000F381E02D0188F289E02D36978081918134
:101A40008D939C93E0912905F0912A050280F38102
:101A5000E02D0188F289E02D369789859A8592C11B
:101A6000E0912905F0912A050280F381E02D01889B
:101A7000F289E02D3297808191819A878987E09160
:101A80002905F0912A050280F381E02DA189B28910
:101A90001297E0912905F0912A050280F381E02D4B
:101AA0000188F289E02D3497808191818D939C93F8
:101AB000E0912905F0912A050280F381E02DA189AA
:101AC000B2891497E0912905F0912A050280F381EB
:101AD000E02D0188F289E02D3697808191818D93E8
:101AE0009C93E0912905F0912A050280F381E02D75
:101AF000A189B2891697E0912905F0912A05028003
:101B0000F381E02D0188F289E02D38978081918161
:101B10008D939C93E0912905F0912A050280F38131
:101B2000E02D0188F289E02D389797CFE0912905C3
:101B3000F0912A050280F381E02D0188F289E02DE1
:101B400032970190F081E02D8081918180709E73A9
:101B50008050924009F491CE6DEEE62EF12C0C945B
:101B60001126E0912905F0912A05A281B381FD019A
:101B7000818992890297928B818BDC018D919C9156
:101B80009A878987BE016F5F7F4F0E942B4440C4B4
:101B9000E0912905F0912A05A281B381FD01818997
:101BA00092890297928B818BDC018D919C919A870F
:101BB00089870E94812B882379F0E0912905F09193
:101BC0002A05A281B381FD01218932898091FE0419
:101BD0009091FF040C940526E0912905F0912A05C7
:101BE000A281B381FD01218932898091FC04909109
:101BF000FD040C940526E0912905F0912A05028048
:101C0000F381E02D0188F289E02D32970190F08177
:101C1000E02D8081918180709E738050924029F0E8
:101C20005DEEE52EF12C0C941126E0912905F09142
:101C30002A05A281B381FD01818992890297928B45
:101C4000818BDC018D919C919A878987BE016F5FA2
:101C50007F4F0E944744DCC3E0912905F0912A059B
:101C6000A281B381FD01818992890297928B818B38
:101C7000DC016D917C917A876987E0912905F0916B
:101C80002A05A281B381FD01818992890297928BF5
:101C9000818BDC01ED91FC91FA83E9838081918154
:101CA00080709E738050904229F04DEEE42EF12C0E
:101CB0000C941126CF010E9446267C01892B09F441
:101CC000DCCD0C941126E0912905F0912A05A28122
:101CD000B381FD01818992890297928B818BDC010E
:101CE0002D913C913A832983E0912905F0912A05B1
:101CF0000280F381E02D0188F289E02D3297808106
:101D000091819A878987AE014D5F5F4FB9010E942B
:101D100000457C01892B11F00C941126E0912905D6
:101D2000F0912A050280F381E02D0188F289E02DEF
:101D300032978B819C8126C0E0912905F0912A057C
:101D40000280F381E02D0188F289E02D32978081B5
:101D500091819A878987BE016F5F7F4F0E94A4316E
:101D60007C01892B11F00C941126E0912905F0914A
:101D70002A050280F381E02D0188F289E02D329757
:101D800089819A819183808378CDE0912905F091B2
:101D90002A050280F381E02D0188F289E02D329737
:101DA0000190F081E02D8081918180709E73805040
:101DB000924009F045C0E0912905F0912A05028082
:101DC000F381E02D0188F289E02D34970190F081B4
:101DD000E02D8081918180709E738050924081F5CA
:101DE000E0912905F0912A05A281B381FD01818945
:101DF00092890297928B818BDC012D913C913A87DD
:101E00002987E0912905F0912A05A281B381FD017E
:101E1000818992890297928B818BDC01ED91FC91F3
:101E2000FA83E98382819381A481B581F9012281BA
:101E3000338144815581BC01CD010E94D64860C1E7
:101E4000E0912905F0912A050280F381E02D0188B7
:101E5000F289E02D32970190F081E02D808191810F
:101E600080709E738050924009F04FC0E091290528
:101E7000F0912A050280F381E02D0188F289E02D9E
:101E800034970190F081E02D8081918180709E7364
:101E900080509042D1F5E0912905F0912A05A28168
:101EA000B381FD01818992890297928B818BDC013C
:101EB000ED91FC91FA87E9878081918180709E7312
:101EC0008050924029F03DEEE32EF12C0C94112627
:101ED0002281338138872F83E0912905F0912A05EB
:101EE000A281B381FD01818992890297928B818BB6
:101EF000DC018D919C919A838983AE014D5F5F4F88
:101F0000B9010E94CD260C9444212DEEE22EF12C35
:101F10000C941126E0912905F0912A050280F381A5
:101F2000E02D0188F289E02D32970190F081E02DBB
:101F30008081918180709E7380509240A9F4E091DD
:101F40002905F0912A050280F381E02D0188F289AC
:101F5000E02D34970190F081E02D80819181807097
:101F60009E738050924029F09DEEE92EF12C0C9446
:101F70001126E0912905F0912A050280F381E02DD8
:101F80000188F289E02D32970190F081E02D828165
:101F90009381A481B5810097A105B10529F483EE51
:101FA000E82EF12C0C941126E0912905F0912A05D8
:101FB000A281B381FD01818992890297928B818BE5
:101FC000DC012D913C913A872987E0912905F09118
:101FD0002A05A281B381FD01818992890297928BA2
:101FE000818BDC01ED91FC91FA83E98382819381FD
:101FF000A481B581F9012281338144815581BC01DD
:10200000CD010E94FD48DA01C9010C943218E0911B
:102010002905F0912A050280F381E02D0188F289DB
:10202000E02D32970190F081E02D808191818070C8
:102030009E7380509240A9F4E0912905F0912A0501
:102040000280F381E02D0188F289E02D3497019020
:10205000F081E02D8081918180709E73805092404C
:1020600029F00DEEE02EF12C0C941126E0912905BB
:10207000F0912A050280F381E02D0188F289E02D9C
:1020800032970190F081E02D82819381A481B58106
:102090000097A105B10529F413EEE12EF12C0C9463
:1020A0001126E0912905F0912A05A281B381FD0155
:1020B000818992890297928B818BDC012D913C91D1
:1020C0003A872987E0912905F0912A05A281B381F9
:1020D000FD01818992890297928B818BDC01ED91C0
:1020E000FC91FA83E98382819381A481B581F9010E
:1020F0002281338144815581BC01CD010E94FD487C
:10210000DC01CB01AFC7E0912905F0912A050280DF
:10211000F381E02D0188F289E02D32970190F08162
:10212000E02D8081918180709E738050924009F0F3
:1021300045C0E0912905F0912A050280F381E02D48
:102140000188F289E02D34970190F081E02D8081A3
:10215000918180709E738050924081F5E0912905B5
:10216000F0912A05A281B381FD01818992890297AC
:10217000928B818BDC012D913C913A872987E091EC
:102180002905F0912A05A281B381FD0181899289F7
:102190000297928B818BDC01ED91FC91FA83E983AC
:1021A00082819381A481B581F901228133814481A7
:1021B0005581820F931FA41FB51F54C7BDEEEB2E90
:1021C000F12C0C941126E0912905F0912A0502804A
:1021D000F381E02D0188F289E02D32970190F081A2
:1021E000E02D8081918180709E738050924009F033
:1021F00045C0E0912905F0912A050280F381E02D88
:102200000188F289E02D34970190F081E02D8081E2
:10221000918180709E738050924081F5E0912905F4
:10222000F0912A05A281B381FD01818992890297EB
:10223000928B818BDC012D913C913A872987E0912B
:102240002905F0912A05A281B381FD018189928936
:102250000297928B818BDC01ED91FC91FA83E983EB
:1022600082819381A481B581F901228133814481E6
:102270005581821B930BA40BB50BF4C6ADEEEA2E71
:10228000F12C0C941126E0912905F0912A05A281E8
:10229000B381FD01818992890297928B818BDC0148
:1022A0006D917C917A876987E0912905F0912A05E3
:1022B000A281B381FD01818992890297928B818BE2
:1022C000DC01CD90DC90DA82C982F6012081318177
:1022D00020703E73232F332726952131310531F4A9
:1022E000AE014D5F5F4FC6010C944221DB018D9121
:1022F0009C9180709E73892F9927869581309105D6
:1023000071F4FB018281938198878F83AE014D5FC9
:102310005F4FBC01C6010E94BF300C944421499715
:10232000D9F520313105C1F4FB0126813781A48123
:10233000B581828193818E010D5F1F4FF90122814A
:102340003381FD0142815381FC0162817381C601A9
:102350000E94D9280C94452124303105C1F4FB0199
:1023600026813781A481B581828193818E010D5FA1
:102370001F4FF90122813381FD0142815381FC010C
:1023800062817381C6010E9420350C9445214DEE77
:10239000E42EF12C0C9411263DEEE32EF12C0C943E
:1023A0001126E0912905F0912A05A281B381FD0152
:1023B000818992890297928B818BDC01ED91FC914E
:1023C000FA87E9878081918180709E73892F992790
:1023D00086958330910521F4FA83E9830C94552581
:1023E0008430910569F4BE016F5F7F4FCF010E9479
:1023F0009F347C01892B11F40C9455250C941126E3
:10240000409771F4BE016F5F7F4FCF010E942F276D
:102410007C01E114F10411F40C9455250C9411265F
:102420009DEEE92EF12C0C941126E0912905F091F6
:102430002A05A281B381FD01818992890297928B3D
:10244000818BDC016D917C917A876987E091290508
:10245000F0912A05A281B381FD01818992890297B9
:10246000928B818BDC01ED90FC90FA82E982FB017A
:102470002081318120703E73232F33272695213010
:10248000310509F0F6C9D7018D919C9180709E733A
:10249000892F992786958031910559F48E010D5F1A
:1024A0001F4FF70142815381FB0162817381C70194
:1024B00052C0049759F48E010D5F1F4FF7014281FE
:1024C0005381FB0162817381C70154C01DEEE12E6F
:1024D000F12C0C941126E0912905F0912A05A28196
:1024E000B381FD01818992890297928B818BDC01F6
:1024F0006D917C917A876987E0912905F0912A0591
:10250000A281B381FD01818992890297928B818B8F
:10251000DC018D919C919A838983FB01208131811B
:1025200020703E73232F332726952130310509F083
:10253000A0C9DC014D915C9140705E73452F552719
:1025400046954031510559F48E010D5F1F4F428170
:10255000538160E070E00E94D9280C9444214430FB
:10256000510561F48E010D5F1F4FFB0142815381C4
:1025700060E070E00E9420350C9444218DEEE82E3E
:10258000F12C0C941126E0912905F0912A05A281E5
:10259000B381FD01818992890297928B818BDC0145
:1025A0004D915C915A874987E0912905F0912A0560
:1025B000A281B381FD01818992890297928B818BDF
:1025C000DC016D917C917A836983E0912905F0911A
:1025D0002A05A281B381FD01818992890297928B9C
:1025E000818BDC01CD90DC90DC82CB82FA01808192
:1025F000918180709E738050924009F03AC9DB014E
:102600002D913C9120703E73232F33272695213046
:10261000310509F02EC9D6018D919C9180709E7371
:10262000892F992786958031910571F48E010B5F72
:102630001F4FFA0142815381FB0162817381C60100
:102640000E94D9280C94F725049771F48E010B5F32
:102650001F4FFA0142815381FB0162817381C601E0
:102660000E9420350C94F725ADEEEA2EF12C0C9447
:102670001126E0912905F0912A05A281B381FD017F
:10268000818992890297928B818BDC010D911C913B
:102690001A870987E0912905F0912A05A281B38163
:1026A000FD01818992890297928B818BDC018D914A
:1026B0009C919A8389839C01F8014281538160E057
:1026C00070E0C8010E9413287C01892B09F4D5C849
:1026D0000C941126E0912905F0912A05A281B3817D
:1026E000FD01818992890297928B818BDC016D912A
:1026F0007C917A876987E0912905F0912A05A2816A
:10270000B381FD01818992890297928B818BDC01D3
:102710000D911C911A830983E0912905F0912A05F6
:10272000A281B381FD01818992890297928B818B6D
:10273000DC012D913C913C832B83FB0180819181B5
:1027400080709E738050924009F093C8F8014281D6
:102750005381FB0162817381C8010E9413287C01AF
:10276000892B09F48AC80C941126E0912905F0916F
:102770002A05A281B381FD01818992890297928BFA
:10278000818BDC014D915C915A874987E091290545
:10279000F0912A05A281B381FD0181899289029776
:1027A000928B818BDC010D911C911A830983E0913E
:1027B0002905F0912A05A281B381FD0181899289C1
:1027C0000297928B818BDC012D913C913C832B8372
:1027D000FA018081918180709E738050924009F04F
:1027E00048C8FA014281538160E070E0C8010E944C
:1027F00013287C01892B09F440C80C941126E09120
:102800002905F0912A05A281B381FD018189928970
:102810000297928B818BDC014D915C915A8749879D
:10282000E0912905F0912A05A281B381FD018189FA
:1028300092890297928B818BDC016D917C917A83D6
:102840006983E0912905F0912A05A281B381FD01F8
:10285000818992890297928B818BDC010D911C9169
:102860001C830B83E0912905F0912A05A281B38195
:10287000FD01818992890297928B818BDC012D91D8
:102880003C913E832D83FA018081918180709E73FB
:102890008050924011F00C94390CDB018D919C9189
:1028A00080709E738050924011F00C94390CFA01A4
:1028B00042815381FB0162817381C8010E94132808
:1028C0007C01892B11F40C943D0C0C941126E091A1
:1028D0002905F0912A05A281B381FD0181899289A0
:1028E0000297928B818BDC018D919C919A878987CD
:1028F000BE016F5F7F4F80E090E00E9442347C0118
:10290000009711F00C941126E985FA8529813A8106
:1029100042815381BC01CF010E9413287C01892B85
:1029200011F40C943D0C0C941126E0912905F091C2
:102930002A05A281B381FD01818992890297928B38
:10294000818BDC012D913C913A872987E091290503
:10295000F0912A05A281B381FD01818992890297B4
:10296000928B818BDC018D919C919A838983F901F3
:102970008081918180709E738050924011F00C9400
:10298000390CBE016D5F7F4F80E090E00E944234C1
:102990007C01892B11F00C941126A981BA818985BB
:1029A0009A852B813C81FD0142815381FC0162812A
:1029B0007381CD010E9413287C01892B11F40C94A2
:1029C0003D0C0C941126E0912905F0912A05A28175
:1029D000B381FD01818992890297928B818BDC0101
:1029E0002D913C913A872987E0912905F0912A059C
:1029F000A281B381FD01818992890297928B818B9B
:102A0000DC018D919C919A838983F9018081918168
:102A100080709E738050924011F00C94390CBE016E
:102A20006D5F7F4F80E090E00E9442347C01009710
:102A300011F00C941126E985FA852B813C814281A5
:102A40005381BC0189819A810E9413287C01892BC2
:102A500011F40C943D0C0C941126E0912905F09191
:102A60002A05A281B381FD01818992890297928B07
:102A7000818BDC012D913C913A872987E0912905D2
:102A8000F0912A05A281B381FD0181899289029783
:102A9000928B818BDC014D915C915A834983E0914B
:102AA0002905F0912A05A281B381FD0181899289CE
:102AB0000297928B818BDC018D919C919C838B83FF
:102AC000F9018081918180709E738050924011F055
:102AD0000C94390CDA018D919C9180709E7380501A
:102AE000924011F00C94390CBE016B5F7F4F80E077
:102AF00090E00E9442347C01892B11F00C94112645
:102B0000E985FA85A981BA812D813E81428153816F
:102B1000FD01628173818B819C810E9413287C015D
:102B2000892B11F40C943D0C0C941126E09129058D
:102B3000F0912A05A281B381FD01818992890297D2
:102B4000928B818BDC016D917C917A876987E09112
:102B50002905F0912A05A281B381FD01818992891D
:102B60000297928B818BDC012D913C913A832983D2
:102B7000E0912905F0912A05A281B381FD018189A7
:102B800092890297928B818BDC014D915C915C83E1
:102B90004B83F9018081918180709E73892F9927E1
:102BA000869580319105D1F4DB018D919C918070E7
:102BB0009E738050924029F0EDEEEE2EF12C0C9495
:102BC0001126FB0162817381C9010E9435277C01B6
:102BD000892B11F40C943D0C0C941126419751F45F
:102BE000C9010E945E3F7C01892B11F40C943D0CBD
:102BF0000C9411267DEEE72EF12C0C941126E09119
:102C00002905F0912A05A281B381FD01818992896C
:102C10000297928B818BDC012D913C913A87298719
:102C2000E0912905F0912A05A281B381FD018189F6
:102C300092890297928B818BDC010D911C911A83F2
:102C40000983F8018081918180709E73892F992773
:102C5000869580319105D1F4D9018D919C91807038
:102C60009E738050924029F05DEEE52EF12C0C947D
:102C70001126F90162817381C8010E9458277C01E5
:102C8000892B11F40C943D0C0C941126419759F4A6
:102C9000B901C8010E9420407C01892B11F40C94D9
:102CA0003D0C0C9411264DEEE42EF12C0C941126C3
:102CB000E0912905F0912A050280F381E02D018839
:102CC000F289E02D32970190F081E02D8081918191
:102CD00080709E738050924009F045C0E0912905B4
:102CE000F0912A050280F381E02D0188F289E02D20
:102CF00034970190F081E02D8081918180709E73E6
:102D00008050924081F5E0912905F0912A05A28139
:102D1000B381FD01818992890297928B818BDC01BD
:102D20002D913C913A872987E0912905F0912A0558
:102D3000A281B381FD01818992890297928B818B57
:102D4000DC01ED91FC91FA83E98382819381A48176
:102D5000B581F901028004C0880F991FAA1FBB1F0B
:102D60000A94D2F77FC13DEEE32EF12C0C9411268C
:102D7000E0912905F0912A050280F381E02D018878
:102D8000F289E02D32970190F081E02D80819181D0
:102D900080709E738050924009F045C0E0912905F3
:102DA000F0912A050280F381E02D0188F289E02D5F
:102DB00034970190F081E02D8081918180709E7325
:102DC0008050924081F5E0912905F0912A05A28179
:102DD000B381FD01818992890297928B818BDC01FD
:102DE0002D913C913A872987E0912905F0912A0598
:102DF000A281B381FD01818992890297928B818B97
:102E0000DC01ED91FC91FA83E98382819381A481B5
:102E1000B581F901028004C0B595A795979587956E
:102E20000A94D2F71FC12DEEE22EF12C0C9411263C
:102E3000E0912905F0912A050280F381E02D0188B7
:102E4000F289E02D32970190F081E02D808191810F
:102E500080709E738050924009F045C0E091290532
:102E6000F0912A050280F381E02D0188F289E02D9E
:102E700034970190F081E02D8081918180709E7364
:102E80008050924081F5E0912905F0912A05A281B8
:102E9000B381FD01818992890297928B818BDC013C
:102EA0002D913C913A872987E0912905F0912A05D7
:102EB000A281B381FD01818992890297928B818BD6
:102EC000DC01ED91FC91FA83E98382819381A481F5
:102ED000B581F90122813381448155818223932375
:102EE000A423B523BFC09DEEE92EF12C0C9411262E
:102EF000E0912905F0912A050280F381E02D0188F7
:102F0000F289E02D32970190F081E02D808191814E
:102F100080709E738050924009F045C0E091290571
:102F2000F0912A050280F381E02D0188F289E02DDD
:102F300034970190F081E02D8081918180709E73A3
:102F40008050924081F5E0912905F0912A05A281F7
:102F5000B381FD01818992890297928B818BDC017B
:102F60002D913C913A872987E0912905F0912A0516
:102F7000A281B381FD01818992890297928B818B15
:102F8000DC01ED91FC91FA83E98382819381A48134
:102F9000B581F901228133814481558182279327AC
:102FA000A427B5275FC08DEEE82EF12C0C941126D6
:102FB000E0912905F0912A050280F381E02D018836
:102FC000F289E02D32970190F081E02D808191818E
:102FD00080709E738050924009F04DC0E0912905A9
:102FE000F0912A050280F381E02D0188F289E02D1D
:102FF00034970190F081E02D8081918180709E73E3
:1030000080509240C1F5E0912905F0912A05A281F6
:10301000B381FD01818992890297928B818BDC01BA
:103020002D913C913A872987E0912905F0912A0555
:10303000A281B381FD01818992890297928B818B54
:10304000DC01ED91FC91FA83E98382819381A48173
:10305000B581F9012281338144815581822B932BE3
:10306000A42BB52BAE014D5F5F4FBC01CD010E947B
:10307000CC430C9444210DEEE02EF12C0C9411263F
:10308000E0912905F0912A05A281B381FD01818992
:1030900092890297928B818BDC018D919C919A870A
:1030A000898760E00E94DA2C7C01892B11F00C9456
:1030B0001126163411F00C943D0C8AE00E94EE3C6F
:1030C0007C01892B11F40C943D0C0C941126E09199
:1030D0002905F0912A050280F381E02D03851485EE
:1030E000F80186818130C1F087819085892BA1F01C
:1030F0001A830983F80107811085CF010E947106A8
:103100007C01892B49F4F8018681813051F0878157
:103110009085892B69F705C0E114F10411F00C9436
:103120001126E0912905F0912A05A281B381F801C9
:1031300082819381FD01928B818BE0912905F09131
:103140002A05A281B381F80184819581FD019087D0
:103150008783E0912905F0912A05A281B381F801C6
:1031600087819085FD0194878387C8010E9471063D
:103170007C01892B11F40C943D0C0C941126E091E8
:103180002905F0912A0522813381F901A189B289AB
:10319000E0912905F0912A050280F381E02D8585D3
:1031A00096850C94D923E0912905F0912A05A281F6
:1031B000B381FD01818992890297928B818BDC0119
:1031C0004D915C915A834983E0912905F0912A053C
:1031D000228133813A872987E0912905F0912A05D8
:1031E0000280F381E02D82819381009749F4E09180
:1031F0002905F0912A05958384837C010C9411267E
:10320000A0912905B0912A05E0912905F0912A05A0
:103210000280F381E02D82819381FD01938382837B
:10322000F901838980FD10C0E0912905F0912A05FC
:10323000A281B381FD0181899289FC01419351935F
:10324000CF01FD01928B818B89859A850E94710641
:10325000892B11F40C943D0C0C941126E091290556
:10326000F0912A05A281B381FD018189928902979B
:10327000928B818BFC01A081B181BA87A987E091F3
:103280002905F0912A0582819381FD016481758170
:10329000FC01858596850E94F0407C01892B11F404
:1032A0000C943D0C0C941126E0912905F0912A050F
:1032B0000280F381E02DA385B485E0912905F0918A
:1032C0002A0522813381FD0187819085F901948748
:1032D0008387E0912905F0912A0522813381FD0140
:1032E00082819381F901928B818BCD010E947106BD
:1032F000892B11F40C943D0C0C941126E0912905B6
:10330000F0912A05A281B381FD01818992890297FA
:10331000928B818BDC016D917C917A876987E0913A
:103320002905F0912A05A281B381FD018189928945
:103330000297928B818BDC014D915C915A8349837A
:10334000E0912905F0912A05A281B381FD018189CF
:1033500092890297928B818BDC01ED91FC91FC8329
:10336000EB83DB018D919C9180709E738050924223
:1033700079F4DA018D919C9180709E738050984011
:1033800039F48081918180709E738050964029F03D
:103390001DEEE12EF12C0C9411269E012B5F3F4F68
:1033A000CF010E940C3D0C94F725E0912905F09186
:1033B0002A05828193810796E0912905F0912A05DB
:1033C0000280F381E02D2681BC01822F99270E9483
:1033D000A92998878F83E0912905F0912A05A28178
:1033E000B381FD012189328922503040328B218BFB
:1033F000D9012D913C913A872987E0912905F091D7
:103400002A050280F381E02D0480F581E02D028001
:10341000F381E02D0580F681E02D880F991FE80FDC
:10342000F91F848195819A838983E0912905F09120
:103430002A050280F381E02DA901BC0185859685CE
:103440000E945E3F7C01892B11F40C943D0C0C947E
:103450001126E0912905F0912A0582819381079632
:10346000E0912905F0912A050280F381E02D268163
:10347000BC01822F99270E94A92998878F83E09108
:103480002905F0912A050280F381E02D0480F58161
:10349000E02D0280F381E02D0580F681E02D880F7C
:1034A000991FE80FF91F848195819A838983E091A0
:1034B0002905F0912A050280F381E02DBC01858564
:1034C00096850E9420407C01892B11F40C943D0CC0
:1034D0000C941126E0912905F0912A05A281B3816F
:1034E000FD01818992890297928B818BDC018D91FC
:1034F0009C919A878987BE01695F7F4F0E94A030A7
:103500007C01892BB1F0E0912905F0912A05828197
:1035100093810796E0912905F0912A050280F381B5
:10352000E02D2681BC01822F99270E94A9290C94A5
:103530001126E0912905F0912A0582819381079651
:10354000E0912905F0912A050280F381E02D268182
:10355000BC01822F99270E94A9292F81388528171D
:10356000390729F0BEEEEB2EF12C0C941126C9017F
:10357000019798878F8397FF02C00C943D0CAE0192
:103580004F5F5F4F6F81788589859A850E94BF3034
:103590007C010097A9F4E0912905F0912A05A28108
:1035A000B381FD012189328989819A81F901819351
:1035B00091939F01FD01328B218B8F819885D8CF0C
:1035C000892B11F40C943D0C0C941126E0912905E3
:1035D000F0912A05828193810796E0912905F09167
:1035E0002A050280F381E02D2681BC01822F9927D4
:1035F0000E94A92998878F83E0912905F0912A05D7
:103600000280F381E02D0188F289E02D32978081DC
:1036100091819A878987BE016F5F7F4F0E946231D7
:103620007C018F3E910511F00C945525E091290500
:10363000F0912A05A281B381FD01818992890297C7
:10364000928B818BDC018D919C919A878987EE24E6
:10365000FF2496C6E0912905F0912A058281938185
:103660000796E0912905F0912A050280F381E02D6B
:103670002681BC01822F99270E94A92998878F83D0
:10368000E0912905F0912A05A281B381FD0181898C
:1036900092890297928B818BDC01ED91FC91FA87E4
:1036A000E9878081918180709E73892F9927869503
:1036B00088309105B9F086309105A1F08A319105E5
:1036C00021F40280F381E02D0DC08730910551F087
:1036D0008930910539F00E9729F0F5EEEF2EF12C97
:1036E0000C941126848195819A83898329813A815A
:1036F000F9018081918180709E738050924229F0FF
:10370000ECEEEE2EF12C0C941126E0912905F091AF
:103710002A050280F381E02D0480F581E02D0280EE
:10372000F381E02D85819681EF81F885EE0FFF1FF3
:10373000E80FF91F848195819C838B83E091290593
:10374000F0912A05A281B381FD014189528942503D
:103750005040528B418BDA014D915C91BC01C90103
:103760000E945E3F7C01892B11F40C943D0C0C945B
:103770001126E0912905F0912A058281938107960F
:10378000E0912905F0912A050280F381E02D268140
:10379000BC01822F99270E94A92998878F83E091E5
:1037A0002905F0912A05A281B381FD0181899289C1
:1037B0000297928B818BDC01ED91FC91FA87E9876E
:1037C0008081918180709E73892F9927869588309A
:1037D0009105B9F086309105A1F08A31910521F467
:1037E0000280F381E02D0DC08730910551F08930C2
:1037F000910539F00E9729F065EEE62EF12C0C9428
:103800001126848195819A838983A981BA818D91BA
:103810009C91119780709E738050924229F05CEECB
:10382000E52EF12C0C941126E0912905F0912A0542
:103830000280F381E02D0480F581E02D0280F38188
:10384000E02D85819681EF81F885EE0FFF1FE80F4F
:10385000F91F848195819C838B83BC01CD010E94DB
:1038600020407C01892B11F40C943D0C0C94112602
:10387000E0912905F0912A05828193810796E091D4
:103880002905F0912A050280F381E02D2681BC01F3
:10389000822F99270E94A92998878F83E091290573
:1038A000F0912A05A281B381FD012189328922503C
:1038B0003040328B218BD9012D913C913A87298759
:1038C000E0912905F0912A050280F381E02D048022
:1038D000F581E02D0280F381E02D0580F681E02D59
:1038E000880F991FE80FF91F848195819A83898336
:1038F000E0912905F0912A050280F381E02DA901CC
:10390000BC01878590890E945E3F7C01892B11F460
:103910000C943D0C0C941126E0912905F0912A0598
:10392000828193810796E0912905F0912A05028012
:10393000F381E02D2681BC01822F99270E94A929BD
:1039400098878F83E0912905F0912A050280F38101
:10395000E02D0480F581E02D0280F381E02D0580CB
:10396000F681E02D880F991FE80FF91F848195815A
:103970009A878987E0912905F0912A050280F381D1
:10398000E02DBC01878590890E9420407C01892B15
:1039900011F40C943D0C0C941126E0912905F09142
:1039A0002A05828193810796E0912905F0912A05E5
:1039B0000280F381E02D2681BC01822F99270E948D
:1039C000A92998878F8381309105D1F4E091290549
:1039D000F0912A050280F381E02D0188F289E02D23
:1039E0003297808191819A878987E0912905F091AA
:1039F0002A05A281B381FD01218932890C94052613
:103A00008230910541F5E0912905F0912A05028067
:103A1000F381E02D0188F289E02D32978081918138
:103A20009A878987E0912905F0912A050280F38120
:103A3000E02D0188F289E02D3497808191819A836D
:103A40008983E0912905F0912A05A281B381FD01C6
:103A5000218932894BC0039709F05CC0E0912905A8
:103A6000F0912A050280F381E02D0188F289E02D92
:103A70003297808191819A878987E0912905F09119
:103A80002A050280F381E02D0188F289E02D349728
:103A9000808191819A838983E0912905F0912A059B
:103AA0000280F381E02D0188F289E02D3697808134
:103AB00091819C838B83E0912905F0912A05A28155
:103AC000B381FD0121893289F901819391939F018D
:103AD000FD01328B218BE0912905F0912A05A2810D
:103AE000B381FD012189328989819A81F90181930C
:103AF00091939F01FD01328B218BE0912905F0917B
:103B00002A05A281B381FD012189328989859A859F
:103B10000C9405264CEEE42EF12C0C941126E09129
:103B20002905F0912A05828193810796E091290564
:103B3000F0912A050280F381E02D2681BC01822FBD
:103B400099270E94A92998878F83E0912905F091F0
:103B50002A0522813381F901A189B289E0912905E1
:103B6000F0912A050280F381E02D0480F581E02D9B
:103B70000280F381E02D0780F085E02D880F991FEA
:103B8000E80FF91F8481958114C6E0912905F09111
:103B90002A05828193810796E0912905F0912A05F3
:103BA0000280F381E02D2681BC01822F99270E949B
:103BB000A92998878F83E0912905F0912A05028031
:103BC000F381E02D0480F581E02D0280F381E02D6A
:103BD0000580F681E02D880F991FE80FF91F848179
:103BE00095819A878987E0912905F0912A050280BD
:103BF000F381E02DAE014F5F5F4FBC018585968557
:103C00000E94D83F7C01883E910511F00C94091266
:103C1000E0912905F0912A050280F381E02DAE01A3
:103C20004F5F5F4F69857A85878590890E94D83F6D
:103C30007C01883E910511F00C940912AE014F5F92
:103C40005F4F69857A8580910405909105050E94F2
:103C5000D83F7C01883E910511F00C94091281E94E
:103C600090E09F938F930E94434560E089859A85F9
:103C70000E94DA2C8AE090E00E945C453AEEE32E46
:103C8000F12C0F900F90CDC7E0912905F0912A05F6
:103C9000828193810796E0912905F0912A0502809F
:103CA000F381E02D2681BC01822F99270E94A9294A
:103CB00098878F83BE01675F7F4F0E9442347C01EB
:103CC000892B09F0AEC72F813885215030403887C5
:103CD0002F8337FD12CF89859A85A901220F331FC3
:103CE000280F391F2C5F3F4FE0912905F0912A05DD
:103CF000A281B381FD01818992890297928B818B88
:103D0000DC018D919C91F901918380832250304098
:103D1000415050404AF758874F83EFCEE091290534
:103D2000F0912A05828193810796E0912905F0910F
:103D30002A050280F381E02D2681BC01822F99277C
:103D40000E94A92998878F83CE0109960E94B126E7
:103D50007C01892B09F065C78F8198850197988729
:103D60008F8397FDCACEE0912905F0912A05A281A3
:103D7000B381FD01818992890297928B818BDC014D
:103D80008D919C919A838983AC0160E070E0898574
:103D90009A850E9483267C01892BF1F21BC0E09159
:103DA0002905F0912A05828193810796E0912905E2
:103DB000F0912A050280F381E02D2681BC01822F3B
:103DC00099270E94A92998878F83CE0109960E947E
:103DD0001A3F7C01E114F10409F023C78ECEE09173
:103DE0002905F0912A05828193810796E0912905A2
:103DF000F0912A050280F381E02D2681BC01822FFB
:103E000099270E94A92998878F83E0912905F0912D
:103E10002A05A281B381FD01818992890297928B43
:103E2000818BDC01ED91FC91FA87E987808191819A
:103E300080709E73892F9927869588309105B1F0FF
:103E40008630910599F08A31910521F40280F38141
:103E5000E02D0CC08730910549F08930910531F093
:103E60000E9721F085EEE82EF12CDBC6848195813A
:103E70009A838983A981BA818D919C9111978070D1
:103E80009E738050924221F00CEEE02EF12CC9C6B8
:103E9000E0912905F0912A050280F381E02D04804C
:103EA000F581E02D0280F381E02D85819681EF81FF
:103EB000F885EE0FFF1FE80FF91F848195819C8321
:103EC0008B83AE014B5F5F4FBC01CD010E94D83F99
:103ED0008EC6EE24FF24E0912905F0912A05A281E7
:103EE000B381FD01818992890297928B818BDC01DC
:103EF0008D919C919A878987E0912905F0912A05F7
:103F0000A281B381FD01818992890297928B818B75
:103F1000DC018D919C919A838983E0912905F09130
:103F20002A05828193810796E0912905F0912A055F
:103F30000280F381E02D2681BC01822F99270E9407
:103F4000A9299C0198878F8309851A85F8018081AA
:103F5000918180709E738050924009F072C0C98038
:103F6000DA80D6018D919C9180709E738050924032
:103F700009F067C0F6014281538164817581F801BF
:103F800082819381A481B58124303105E9F1253006
:103F9000310584F42130310511F1223031051CF452
:103FA000232BB1F04AC02230310501F12330310515
:103FB00021F143C02830310524F426303105CCF5F9
:103FC0002AC02830310569F12930310571F135C039
:103FD000481759076A077B070CF05CC082C084173A
:103FE0009507A607B7070CF455C07BC048175907BB
:103FF0006A077B0709F04EC074C0481759076A0763
:104000007B0709F447C06DC084179507A607B7075B
:104010000CF040C066C0481759076A077B07D4F107
:1040200060C00C151D05B1F55CC00C151D0591F1A6
:1040300058C01DEEE12EF12CF4C5BCEEEB2EF12C98
:10404000F0C5EE24FF248F819885823091050CF411
:104050004DC0843091052CF00697029708F046C0B9
:1040600020C08091FC049091FD049C838B83698126
:104070007A8189859A850E94BE2B882329F48F81B5
:104080009885029771F106C08F3F21F48F81988542
:10409000039739F18091FC049091FD049C838B83FC
:1040A00096C28091FC049091FD049C838B8369816E
:1040B0007A8189859A850E94092C7C01009731F4C8
:1040C0008F819885069709F082C20BC08F3F9105BA
:1040D00009F0DBC0EE24FF248F819885079709F053
:1040E00076C28091FE049091FF04D8CFACEEEA2E08
:1040F000F12C97C5E0912905F0912A0582819381E1
:104100000796E0912905F0912A050280F381E02DC0
:104110002681BC01822F99270E94A92998878F8325
:10412000E0912905F0912A050280F381E02D0480B9
:10413000F581E02D0280F381E02D0580F681E02DF0
:10414000880F991FE80FF91F248135813A87298745
:10415000E0912905F0912A05A281B381FD018189B1
:1041600092890297928B818BDC018D919C919C832B
:104170008B83E0912905F0912A050280F381E02DDF
:104180000188F289E02D3297808191819C838B8315
:10419000BE016F5F7F4FC9010E94C12A7C01892B3C
:1041A00009F03FC5E0912905F0912A050280F381CD
:1041B000E02D0188F289E02D329789819A819183DF
:1041C0008083E0912905F0912A05A281B381FD0148
:1041D0002189328989819A81F901819391939F0183
:1041E000FD01328B218B61E080E00E94A70A7C01F7
:1041F000892B11F40C943D0C14C5E0912905F09124
:104200002A050280F381E02D0188F289E02D3297A2
:10421000808191819A878987E0912905F0912A050B
:10422000828193810796E0912905F0912A05028009
:10423000F381E02D2681BC01822F99270E94A929B4
:1042400098878F83E0912905F0912A050280F381F8
:10425000E02D0480F581E02D0280F381E02D0580C2
:10426000F681E02D880F991FE80FF91F8481958151
:104270009A838983E985FA85AE014D5F5F4FBC0162
:10428000848195810E94D83F7C01E114F10409F0FA
:10429000C8C49DC1E0912905F0912A0582819381CE
:1042A0000796E0912905F0912A050280F381E02D1F
:1042B0002681BC01822F99270E94A9299C019887F9
:1042C0008F83E0912905F0912A050280F381E02D8A
:1042D00087819085820F931F2DC1E0912905F09170
:1042E0002A05828193810796E0912905F0912A059C
:1042F0000280F381E02D2681BC01822F99270E9444
:10430000A92998878F83E0912905F0912A050280D9
:10431000F381E02D0188F289E02D3297808191812F
:104320000E94812B882311F40C943D0C29C0E0914C
:104330002905F0912A05828193810796E09129054C
:10434000F0912A050280F381E02D2681BC01822FA5
:1043500099270E94A92998878F83E0912905F091D8
:104360002A050280F381E02D0188F289E02D329741
:10437000808191810E94812B882311F00C943D0C47
:10438000E0912905F0912A050280F381E02D8781D3
:1043900090852F8138859ECFE0912905F0912A05DF
:1043A000828193810796E0912905F0912A05028088
:1043B000F381E02D2681BC01822F99270E94A92933
:1043C0009C0198878F83E0912905F0912A05A281AD
:1043D000B381E0912905F0912A050280F381E02D57
:1043E0000480F581E02D0280F381E02D81859285A6
:1043F000820F931FFD019EC0E0912905F0912A05CF
:10440000828193810796E0912905F0912A05028027
:10441000F381E02D2681BC01822F99270E94A929D2
:104420006C0198878F83E0912905F0912A05A2817C
:10443000B381FD01818992890297928B818BDC0186
:104440006D917C917A876987E0912905F0912A0521
:10445000A281B381FD01818992890297928B818B20
:10446000DC010D911C911A830983FB0180819181EC
:1044700080709E738050924021F0F7EEEF2EF12C69
:10448000D0C3A801D8018D919C9180709E73892F13
:10449000992786958430910569F5F8018281938189
:1044A000AA2797FDA095BA2FFB01028113812481D1
:1044B0003581081719072A073B078CF5FB01A281F4
:1044C000B381AA0FBB1FA40FB51FFD018481958185
:1044D0009C838B830F5F1F4F2F4F3F4FAE01475F72
:1044E0005F4FC901B8010E94CC437C01892B09F4BC
:1044F0004AC097C3409709F042C0F8018281938176
:104500009C01442737FD4095542FFB018281938104
:10451000A481B58182179307A407B5077CF0E091C9
:104520002905F0912A050280F381E02D878190858D
:104530008C0D9D1D908787830C943D0CAE014D5FC3
:104540005F4FFB0162817381C8010E9463267C0179
:10455000892B09F066C3E985FA8582819381A4815C
:10456000B5810196A11DB11DAE01475F5F4FBC0132
:10457000CD010E94CC437C01892B29F052C33DEE32
:10458000E32EF12C4EC3E0912905F0912A05A2817A
:10459000B381FD012189328989819A81F901819351
:1045A00091939F01FD01328B218BE0912905F091C0
:1045B0002A05A281B381FD012189328989859A85E5
:1045C000F901819391939F01FD01328B218BE09141
:1045D0002905F0912A05A281B381FD012189328943
:1045E0008B819C8112C3E0912905F0912A0582817B
:1045F00093810796E0912905F0912A050280F381C5
:10460000E02D2681BC01822F99270E94A929988735
:104610008F83E0912905F0912A050280F381E02D36
:104620000480F581E02D0280F381E02D0580F68184
:10463000E02D880F991FE80FF91F848195819A87D3
:104640008987E0912905F0912A050280F381E02D08
:10465000AE014F5F5F4FBC01878590890E94D83FB4
:104660007C01883E910511F00C940912AE014F5F58
:104670005F4F69857A8580910405909105050E94B8
:10468000D83F7C01883E910511F00C9409122AEE66
:10469000E22EF12CC6C2E0912905F0912A05828113
:1046A00093810796E0912905F0912A050280F38114
:1046B000E02D2681BC01822F99270E94A929988785
:1046C0008F83BE01655F7F4F89E090E00E94B8094B
:1046D0007C01892B09F0A5C2AB85BC85BA87A98767
:1046E0008D919C911197917C966211969C938E93DB
:1046F000E0912905F0912A050280F381E02D81895E
:104700009289FD0193838283E0912905F0912A0526
:104710000280F381E02D878190852F813885820F7B
:10472000931FFD019583848381E08683E0912905B1
:10473000F0912A050280F381E02D83859485FD01A7
:1047400090878783E0912905F0912A050280F38103
:10475000E02DB487A3870C943D0CE0912905F091DE
:104760002A05828193810796E0912905F0912A0517
:104770000280F381E02D2681BC01822F99270E94BF
:10478000A92998878F83E0912905F0912A05228134
:104790003381F901A189B289E0912905F0912A05B7
:1047A0000280F381E02D880F991FE80FF91F84899B
:1047B00095898D939D93F901B28BA18B0C943D0C3F
:1047C000E0912905F0912A05828193810796E09175
:1047D0002905F0912A050280F381E02D2681BC0194
:1047E000822F99270E94A92998878F83E091290514
:1047F000F0912A0522813381880F991F280F391FD4
:10480000E0912905F0912A05A281B381FD018189FA
:1048100092890297928B818BDC018D919C91F90199
:10482000958B848B0C943D0CE0912905F0912A0521
:1048300002811381E0912905F0912A0582819381FB
:104840000796E0912905F0912A050280F381E02D79
:104850002681BC01822F99270E94A929F8019287FD
:1048600081870C943D0CE0912905F0912A05828105
:1048700093810796E0912905F0912A050280F38142
:10488000E02D2681BC01822F99270E94A9299887B3
:104890008F83019721F09CEEE92EF12CC2C1E091AB
:1048A0002905F0912A05A281B381FD0181899289B0
:1048B0000297928B818BDC01ED91FC91FA87E9875D
:1048C0008081918180709E7380509C4121F08DEE9B
:1048D000E82EF12CA6C1E0912905F0912A05A281CC
:1048E000B381FD01218932898091FA049091FB0402
:1048F000F901819391939F01FD01328B218BE0910E
:104900002905F0912A05A281B381FD01218932890F
:104910008091FA049091FB04F901819391939F0196
:10492000FD01328B218BE0912905F0912A05A281AE
:10493000B381FD012189328989859A85F9018193A5
:1049400091939F01FD01328B218BE985FA85AE01A0
:104950004F5F5F4F609102057091030584819581DF
:104960000E94D83F7C01892B09F05BC1E981FA8163
:10497000E280F380FFEFEF22FF2453C1E09129058D
:10498000F0912A05828193810796E0912905F091A3
:104990002A050280F381E02D2681BC01822F992710
:1049A0000E94A92998878F8360E08F810E94A70ABF
:1049B0007C01892B11F40C943D0C33C1E091290545
:1049C000F0912A05828193810796E0912905F09163
:1049D0002A050280F381E02D2681BC01822F9927D0
:1049E0000E94A92998878F83E0912905F0912A05D3
:1049F000A281B381FD01818992890297928B818B7B
:104A0000DC018D919C919A878987E0912905F0912D
:104A10002A050280F381E02DAE014F5F5F4F67856D
:104A200070890E94F0417C01892B09F0FAC08F81C6
:104A3000988518161906CCF5BE016D5F7F4F0E9450
:104A400042347C01892B09F0ECC02F81388521503C
:104A5000304038872F8337FD22C08B819C81A9018C
:104A6000220F331F280F391F2C5F3F4FE09129057C
:104A7000F0912A05A281B381FD0181899289029773
:104A8000928B818BDC018D919C91F90191838083C4
:104A900022503040415050404AF758874F83E981B7
:104AA000FA818B819C8191878087E0912905F09123
:104AB0002A05A281B381FD012189328989819A81E8
:104AC000A4C0E0912905F0912A058281938107967F
:104AD000E0912905F0912A050280F381E02D2681DD
:104AE000BC01822F99270E94A929AC0198878F8346
:104AF0000297029720F00DEEE02EF12C92C0E0918B
:104B00002905F0912A05A281B381FD01818992894D
:104B10000297928B818BDC012D913C913A872987FA
:104B2000E0912905F0912A05A281B381FD018189D7
:104B300092890297928B818BDC018D919C919A8353
:104B400089834330510591F4E0912905F0912A05BC
:104B5000A281B381FD01818992890297928B818B19
:104B6000DC018D919C919C838B8311C03A832983B6
:104B70003C832B83AE01475F5F4F61E070E080E0D4
:104B800090E00E94CC437C01892B09F04AC0498502
:104B90005A85FA018081918180709E738050924085
:104BA00021F01DEEE12EF12C3CC0A981BA818D913E
:104BB0009C91119780709E738050924021F0BDEEC1
:104BC000EB2EF12C2EC0EB81FC81808191818070D5
:104BD0009E738050924021F0ADEEEA2EF12C21C060
:104BE0009E012B5F3F4FBD01CF010E9444327C01EB
:104BF000892BB9F4E0912905F0912A05A281B381AE
:104C0000FD01218932898D819E81F90181939193E2
:104C10009F01FD01328B218B0C943D0CFCEEEF2E9D
:104C2000F12CE0912705F09128058281938102976C
:104C30001CF4E114F104C1F46091290570912A0576
:104C400080912705909128050E94D3277C0110921E
:104C50002A0510922905892B39F40E94ED097C015F
:104C6000892B11F40C943D0CB701CB012C960FB697
:104C7000F894DEBF0FBECDBFDF91CF911F910F9192
:104C8000FF90EF90DF90CF90BF900895CF93DF9388
:104C9000EC018881998180709E738050904219F058
:104CA0008DEE90E00DC08C819D810E94BD2F9C01F6
:104CB000892B29F48A819B8101969B838A83C90170
:104CC000DF91CF910895FC018081918180709E7366
:104CD0008050904219F08DEE90E0089577FF04C067
:104CE00082819381680F791F77FD05C0828193814E
:104CF000681779071CF087EE90E00895848195810C
:104D00000E94F22E0895CF93DF93EC019A018881DF
:104D1000998180709E738050904219F08DEE90E0E2
:104D20001DC08A819B8177FF02C0680F791F77FFC2
:104D300002C060E070E0861797070CF4BC01AB017D
:104D4000B9018C819D810E941B2F9C01892B29F424
:104D50008A819B8101969B838A83C901DF91CF91D0
:104D60000895CF93DF93EC01BC0186E090E00E94B0
:104D7000B8099C01009771F4E881F98180819181E3
:104D8000917C90629183808333832283CF01049648
:104D90000E94C42FDF91CF9108958F929F92AF927E
:104DA000BF92CF92DF92EF92FF920F931F93CF9318
:104DB000DF93CDB7DEB722970FB6F894DEBF0FBEF4
:104DC000CDBF6C018B014A011A821982FC018081DE
:104DD000918180709E738050904219F08DEE90E02A
:104DE0002BC0F601A280B380CA010E94B1260097B1
:104DF00019F510161106F4F4EE24FF24EA14FB044E
:104E0000B4F4AE014F5F5F4FB701C6010E94632645
:104E1000009791F469817A81F401808191810E94E7
:104E20004626009749F40894E11CF11CE7CF015095
:104E30001040DFCF80E090E022960FB6F894DEBFFE
:104E40000FBECDBFDF91CF911F910F91FF90EF90DB
:104E5000DF90CF90BF90AF909F908F900895AB015F
:104E600061E070E00E94CD260895FC019A018081E6
:104E7000918180709E738050904219F08DEE90E089
:104E8000089577FF04C082819381680F791F77FDB1
:104E900005C082819381681779071CF087EE90E046
:104EA0000895AB01B901848195810E94E12F089595
:104EB000CF93DF93EC018881998180709E7380503D
:104EC000904219F08DEE90E010C077FF04C08A8107
:104ED0009B81680F791F8C819D810E9407302A81F8
:104EE0003B81215030403B832A83DF91CF9108954D
:104EF0008F929F92AF92BF92CF92DF92EF92FF92EA
:104F00000F931F93CF93DF93CDB7DEB722970FB6E2
:104F1000F894DEBF0FBECDBFFC015B014A01EE2459
:104F2000FF248081918180709E738050904241F077
:104F30008DEE90E025C0F401D182C082C70120C06F
:104F4000048115816701F80186819781C816D90609
:104F5000A8F4AE014F5F5F4FB601C8010E94F22E68
:104F60007C01892B59F7B50189819A810E94BE2B5A
:104F7000882309F30894C11CD11CE5CF8EEE90E084
:104F800022960FB6F894DEBF0FBECDBFDF91CF9152
:104F90001F910F91FF90EF90DF90CF90BF90AF9057
:104FA0009F908F9008950F931F93CF93DF93CDB76A
:104FB000DEB722970FB6F894DEBF0FBECDBF8C01CF
:104FC000FC018081918180709E738050904219F025
:104FD0008DEE90E00DC0AE014F5F5F4FC8010E94A3
:104FE0007827009729F469817A81C8010E9458279F
:104FF00022960FB6F894DEBF0FBECDBFDF91CF91E2
:105000001F910F910895FC018081918180709E73A2
:105010008050904219F08DEE90E008958481958142
:105020000E945E2E0895AF92BF92CF92DF92EF92D0
:10503000FF920F931F93CF93DF93CDB7DEB72297E5
:105040000FB6F894DEBF0FBECDBF5C017B016901D6
:1050500057FF05C0FC0182819381480F591FF7FE5D
:1050600005C0F50182819381E80EF91EF50180816A
:10507000918180709E7380509042B9F4F501228135
:1050800033818901041B150B0E0D1F1DF601808154
:10509000918180709E73892F992786958430910520
:1050A00039F0409711F4F60103C08DEE90E070C026
:1050B00082819381080F191F021713076CF4B7013F
:1050C000C5010E945827009709F062C0F50182814E
:1050D0009381081719079CF3F5018281938180174A
:1050E00091074CF4A601B701C5010E9483260097E1
:1050F00009F04EC0F1CFF6018081918180709E73DE
:10510000892F9927869584309105F9F400E010E005
:105110008281938108171907CCF5AE014F5F5F4F6D
:10512000B801C6010E94FC34009791F549815A816B
:10513000B701C5010E943527009751F50F5F1F4F3A
:105140000894E11CF11CF601E3CF4097F9F400E06C
:1051500010E0F6018281938108171907BCF4AE01B3
:105160004F5F5F4FB801C6010E946326009781F42C
:1051700049815A81B701C5010E943527009741F442
:105180000F5F1F4F0894E11CF11CE3CF80E090E01B
:1051900022960FB6F894DEBF0FBECDBFDF91CF9140
:1051A0001F910F91FF90EF90DF90CF90BF90AF9045
:1051B00008956F927F928F929F92AF92BF92CF92FB
:1051C000DF92EF92FF920F931F93CF93DF93CDB7B0
:1051D000DEB722970FB6F894DEBF0FBECDBF5C01DD
:1051E0007B016A0139014801232B19F48EEE90E00E
:1051F00039C057FF05C0FC0182819381C80ED91EBA
:10520000F7FE05C0F50182819381E80EF91EF501D4
:105210008081918180709E738050904219F08DEE54
:1052200090E020C0C4010E94B1260097D9F4870104
:105230000C151D05A8F4AE014F5F5F4FB801C50105
:105240000E946326009771F469817A81F40180815C
:1052500091810E944626009729F4060D171DE8CF7C
:1052600080E090E022960FB6F894DEBF0FBECDBF6F
:10527000DF91CF911F910F91FF90EF90DF90CF9032
:10528000BF90AF909F908F907F906F900895AF9256
:10529000BF92CF92DF92EF92FF920F931F93CF9323
:1052A000DF93CDB7DEB722970FB6F894DEBF0FBEFF
:1052B000CDBF7C0100E010E0FC0180819181807015
:1052C0009E738050904229F08DEE90E031C0C8016D
:1052D0002FC08BE50E94EE3CF701A480B5806801E9
:1052E00082819381C816D90604F5C114D10431F026
:1052F0008CE20E94EE3C80E20E94EE3CAE014F5FE9
:105300005F4FB601C5010E94F22E8C01892BF9F680
:1053100061E089819A810E94DA2C8C01892BB9F68F
:105320000894C11CD11CF701DBCF8DE50E94EE3C37
:1053300022960FB6F894DEBF0FBECDBFDF91CF919E
:105340001F910F91FF90EF90DF90CF90BF90AF90A3
:105350000895DF92EF92FF920F931F937C018B01D0
:105360000E94AC3CD82EB801C7010E94AC3C2D2D48
:1053700033279927982F8827822B932B1F910F91E2
:10538000FF90EF90DF900895BF92CF92DF92EF925F
:10539000FF920F931F937C018B010E94AC3CD82E8F
:1053A000B801C7010E94AC3CCD2CDD249927982F71
:1053B0008827C82AD92AB801C7010E94AC3CB82E58
:1053C000B801C7010E94AC3C2B2D33279927982F99
:1053D0008827282B392B44275527C601AA27BB2706
:1053E000A90133272227822B932BA42BB52BBC0199
:1053F000CD011F910F91FF90EF90DF90CF90BF9064
:105400000895CF92DF92EF92FF920F931F93CF9365
:10541000DF936C018B017A01E901892BC9F4A901A1
:10542000D7016D917C91F801808191810E94ED31CD
:10543000D7018D919C9111978C0F9D1F8D939C93FB
:10544000F801808191818C0F9D1F9183808313C00F
:10545000232B89F0B701C6010E94AC3CD801ED9125
:10546000FC91119780838D919C91119701968D935A
:105470009C93219779F7DF91CF911F910F91FF9026
:10548000EF90DF90CF900895EF92FF920F931F93CC
:10549000CF93DF93CDB7DEB722970FB6F894DEBF78
:1054A0000FBECDBF7C018B01892B21F4CB010E9463
:1054B00004320FC07A836983BE016F5F7F4FC701DB
:1054C0000E94AC3C8823C1F789819A81801B910B93
:1054D000019722960FB6F894DEBF0FBECDBFDF91C5
:1054E000CF911F910F91FF90EF900895EF92FF924F
:1054F0000F931F93CF93DF93CDB7DEB724970FB6EB
:10550000F894DEBF0FBECDBF8C017B01DC018D9115
:105510009C9180709E7380509A4019F08DEE90E0BF
:1055200023C0BE016F5F7F4F8AE090E00E94B80900
:105530000097D1F4E981FA81D701ED93FC93808142
:105540009181917C9C609183808313830283CE013F
:1055500003960E941A3FD701ED91FC912B813C816B
:10556000358324833783268324960FB6F894DEBFD1
:105570000FBECDBFDF91CF911F910F91FF90EF90A4
:105580000895CF92DF92EF92FF920F931F93CF93E4
:10559000DF93CDB7DEB724970FB6F894DEBF0FBE0A
:1055A000CDBF7C016B011C821B82FC01808191813B
:1055B00080709E738050964019F08BEE90E02FC063
:1055C000009106051091070503C0F80107811085B9
:1055D0000115110541F0F80162817381C7010E9434
:1055E000A7328F3F91F30115110519F486EE90E073
:1055F00016C0F801858196819C838B838481AE01DE
:105600004F5F5F4FBE016D5F7F4F99270E941E2B3A
:10561000009729F4B60189819A810E94762A2496FE
:105620000FB6F894DEBF0FBECDBFDF91CF911F91B3
:105630000F91FF90EF90DF90CF900895CF92DF927F
:10564000EF92FF920F931F93CF93DF936C018B0127
:105650007A01C0E0D0E00E94AC3C99278F71907035
:105660008330910541F18430910528F4009779F059
:105670000197A9F03AC08A30910581F18B309105EC
:1056800018F40497F9F031C00B9711F12EC08091F6
:10569000FA049091FB04F7019183808328C0B8013C
:1056A000C6010E94C429DC01CB01A701BC01CD01C8
:1056B0000E94CC4318C0970141E0B801C6010E9486
:1056C000C03211C0A701B801C6010E9467340BC0E7
:1056D000A701B801C6010E94CC3E05C0A701B801D0
:1056E000C6010E94453EEC0102C0CCEED0E0CE01E6
:1056F000DF91CF911F910F91FF90EF90DF90CF90AE
:105700000895FC012081318120703E73232F3327BF
:1057100026952330310529F12430310538F421153F
:10572000310539F12130310579F025C020313105BD
:10573000C1F02131310520F42430310591F01BC036
:105740002131310571F017C040E050E08281938132
:10575000A481B5810097A105B10509F4A901CA0189
:10576000089520E030E082819381892B11F421E0BB
:1057700030E0C901089580E090E00895CF93DF9371
:10578000DC01FB018617970779F12D913C91119768
:1057900020703E738081918180709E73A901452F96
:1057A000552746958217930779F54330510520F424
:1057B0004130510558F418C044305105E9F04430E7
:1057C0005105A8F040315105B9F01EC0ED012A8104
:1057D0003B814C815D8182819381A481B5812817B1
:1057E00039074A075B0781F480E090E00FC0BF01F2
:1057F000CD010E94A73204C0BF01CD010E94FF303D
:10580000992787FD909502C08FEF9FEFDF91CF9191
:1058100008958F929F92AF92BF92CF92DF92EF92B4
:10582000FF920F931F93CF93DF93CDB7DEB72297ED
:105830000FB6F894DEBF0FBECDBF7C015B01BFEF9A
:105840008B2E912CFC018081918180709E73892F19
:10585000992786958430910571F08530910518F46B
:10586000039739F190C08031910509F452C04197F6
:1058700009F46BC088C000E010E0F70182819381D9
:10588000081719070CF082C0AE014F5F5F4FB801D7
:10589000C7010E94FC346C01892B09F064C0698146
:1058A0007A81C5010E94BE2B882389F10F5F1F4FAB
:1058B000E4CFFB018081918180709E73805096407F
:1058C00009F061C0FB0182819381009711F44C01C2
:1058D0005DC0019739F0FEEE8F2E912C57C08824C1
:1058E000992454C0FB01668100E010E0F701228199
:1058F00033810217130708F049C036968191681763
:1059000071F30F5F1F4F02171307C0F33FC046012B
:105910003DC000E010E0F70182819381081719076C
:10592000ACF5AE014F5F5F4FB801C7010E9463261F
:105930006C01892B01F569817A81C5010E94BE2B1A
:10594000882329F30F5F1F4FE6CFAE014F5F5F4FF4
:10595000C7010E94D83F4C01883E9105B9F4EFEF92
:105960008E2E912C13C0AE014F5F5F4FB801C7015F
:105970000E94FC340CC0AE014F5F5F4FB801C701FD
:105980000E94632604C07DEE872E912CC4012296CE
:105990000FB6F894DEBF0FBECDBFDF91CF911F9140
:1059A0000F91FF90EF90DF90CF90BF90AF909F90BE
:1059B0008F900895FF920F931F93CF93DF93EC0185
:1059C000F62E00E010E0892B51F488E990E09F93D7
:1059D0008F930E944345C8010F900F90B2C08881F9
:1059E000998180709E73892F992786958F309105B4
:1059F00080F48530910508F047C08130910559F158
:105A000081309105C0F08330910549F1049799F1F7
:105A100095C086319105C1F18731910530F480310F
:105A2000910529F14197F9F089C08931910539F142
:105A30004A9751F183C0662309F482C08EE40E9424
:105A4000EE3C8FE60E94EE3C8EE60E94EE3C85E640
:105A50000E94EE3C17C0CE010E94604413C0CE01EC
:105A60000E9493330FC0CE010E9472400BC0CE0142
:105A70000E94472907C0CE010E94CA3503C0CE014B
:105A80000E9479328C015CC0FF2039F087E20E94CD
:105A9000EE3C8C01892B09F053C08CE30E94EE3C54
:105AA0000115110509F04CC08FE60E94EE3C82E61C
:105AB0000E94EE3C8AE60E94EE3C80E20E94EE3CB0
:105AC00084E70E94EE3C89E70E94EE3C80E70E945A
:105AD000EE3C85E60E94EE3C80E20E94EE3C80E3D4
